{
  "contractName": "Election",
  "abi": [
    {
      "inputs": [
        {
          "internalType": "address",
          "name": "_registrationAuthority",
          "type": "address"
        },
        {
          "internalType": "string",
          "name": "_title",
          "type": "string"
        },
        {
          "internalType": "string",
          "name": "_description",
          "type": "string"
        },
        {
          "internalType": "uint256",
          "name": "_startTime",
          "type": "uint256"
        },
        {
          "internalType": "uint256",
          "name": "_endTime",
          "type": "uint256"
        },
        {
          "internalType": "string",
          "name": "_encryptionKey",
          "type": "string"
        }
      ],
      "payable": false,
      "stateMutability": "nonpayable",
      "type": "constructor"
    },
    {
      "constant": true,
      "inputs": [
        {
          "internalType": "uint256",
          "name": "",
          "type": "uint256"
        }
      ],
      "name": "ballotList",
      "outputs": [
        {
          "internalType": "string",
          "name": "name",
          "type": "string"
        },
        {
          "internalType": "string",
          "name": "party",
          "type": "string"
        }
      ],
      "payable": false,
      "stateMutability": "view",
      "type": "function"
    },
    {
      "constant": true,
      "inputs": [],
      "name": "description",
      "outputs": [
        {
          "internalType": "string",
          "name": "",
          "type": "string"
        }
      ],
      "payable": false,
      "stateMutability": "view",
      "type": "function"
    },
    {
      "constant": true,
      "inputs": [],
      "name": "encryptionKey",
      "outputs": [
        {
          "internalType": "string",
          "name": "",
          "type": "string"
        }
      ],
      "payable": false,
      "stateMutability": "view",
      "type": "function"
    },
    {
      "constant": true,
      "inputs": [],
      "name": "endTime",
      "outputs": [
        {
          "internalType": "uint256",
          "name": "",
          "type": "uint256"
        }
      ],
      "payable": false,
      "stateMutability": "view",
      "type": "function"
    },
    {
      "constant": true,
      "inputs": [
        {
          "internalType": "uint256",
          "name": "",
          "type": "uint256"
        }
      ],
      "name": "publishedResult",
      "outputs": [
        {
          "internalType": "uint256",
          "name": "",
          "type": "uint256"
        }
      ],
      "payable": false,
      "stateMutability": "view",
      "type": "function"
    },
    {
      "constant": true,
      "inputs": [],
      "name": "registrationAuthority",
      "outputs": [
        {
          "internalType": "address",
          "name": "",
          "type": "address"
        }
      ],
      "payable": false,
      "stateMutability": "view",
      "type": "function"
    },
    {
      "constant": true,
      "inputs": [],
      "name": "startTime",
      "outputs": [
        {
          "internalType": "uint256",
          "name": "",
          "type": "uint256"
        }
      ],
      "payable": false,
      "stateMutability": "view",
      "type": "function"
    },
    {
      "constant": true,
      "inputs": [],
      "name": "title",
      "outputs": [
        {
          "internalType": "string",
          "name": "",
          "type": "string"
        }
      ],
      "payable": false,
      "stateMutability": "view",
      "type": "function"
    },
    {
      "constant": false,
      "inputs": [
        {
          "internalType": "address",
          "name": "_voter",
          "type": "address"
        }
      ],
      "name": "registerVoter",
      "outputs": [],
      "payable": false,
      "stateMutability": "nonpayable",
      "type": "function"
    },
    {
      "constant": false,
      "inputs": [
        {
          "internalType": "address",
          "name": "_voter",
          "type": "address"
        }
      ],
      "name": "unregisterVoter",
      "outputs": [],
      "payable": false,
      "stateMutability": "nonpayable",
      "type": "function"
    },
    {
      "constant": true,
      "inputs": [
        {
          "internalType": "address",
          "name": "_voter",
          "type": "address"
        }
      ],
      "name": "isRegisteredVoter",
      "outputs": [
        {
          "internalType": "bool",
          "name": "",
          "type": "bool"
        }
      ],
      "payable": false,
      "stateMutability": "view",
      "type": "function"
    },
    {
      "constant": true,
      "inputs": [],
      "name": "getNumberOfVoters",
      "outputs": [
        {
          "internalType": "uint256",
          "name": "",
          "type": "uint256"
        }
      ],
      "payable": false,
      "stateMutability": "view",
      "type": "function"
    },
    {
      "constant": true,
      "inputs": [],
      "name": "getListOfVoters",
      "outputs": [
        {
          "internalType": "address[]",
          "name": "x",
          "type": "address[]"
        }
      ],
      "payable": false,
      "stateMutability": "view",
      "type": "function"
    },
    {
      "constant": true,
      "inputs": [
        {
          "internalType": "address",
          "name": "_voter",
          "type": "address"
        }
      ],
      "name": "getVoterDetails",
      "outputs": [
        {
          "components": [
            {
              "internalType": "uint256",
              "name": "listPointer",
              "type": "uint256"
            },
            {
              "internalType": "bool",
              "name": "isVoter",
              "type": "bool"
            },
            {
              "internalType": "address",
              "name": "ethAddress",
              "type": "address"
            }
          ],
          "internalType": "struct Election.Voter",
          "name": "",
          "type": "tuple"
        }
      ],
      "payable": false,
      "stateMutability": "view",
      "type": "function"
    },
    {
      "constant": false,
      "inputs": [
        {
          "internalType": "string",
          "name": "_name",
          "type": "string"
        },
        {
          "internalType": "string",
          "name": "_party",
          "type": "string"
        }
      ],
      "name": "addCandidate",
      "outputs": [],
      "payable": false,
      "stateMutability": "nonpayable",
      "type": "function"
    },
    {
      "constant": true,
      "inputs": [],
      "name": "getBallot",
      "outputs": [
        {
          "components": [
            {
              "internalType": "string",
              "name": "name",
              "type": "string"
            },
            {
              "internalType": "string",
              "name": "party",
              "type": "string"
            }
          ],
          "internalType": "struct Election.Ballot[]",
          "name": "x",
          "type": "tuple[]"
        }
      ],
      "payable": false,
      "stateMutability": "view",
      "type": "function"
    },
    {
      "constant": true,
      "inputs": [],
      "name": "getencryptedVoteList",
      "outputs": [
        {
          "internalType": "string[]",
          "name": "success",
          "type": "string[]"
        }
      ],
      "payable": false,
      "stateMutability": "view",
      "type": "function"
    },
    {
      "constant": false,
      "inputs": [
        {
          "internalType": "uint256[]",
          "name": "results",
          "type": "uint256[]"
        }
      ],
      "name": "publishResults",
      "outputs": [
        {
          "internalType": "bool",
          "name": "success",
          "type": "bool"
        }
      ],
      "payable": false,
      "stateMutability": "nonpayable",
      "type": "function"
    },
    {
      "constant": true,
      "inputs": [],
      "name": "getResults",
      "outputs": [
        {
          "internalType": "uint256[]",
          "name": "results",
          "type": "uint256[]"
        }
      ],
      "payable": false,
      "stateMutability": "view",
      "type": "function"
    },
    {
      "constant": false,
      "inputs": [
        {
          "internalType": "string",
          "name": "_encryptedVote",
          "type": "string"
        }
      ],
      "name": "vote",
      "outputs": [
        {
          "internalType": "bool",
          "name": "success",
          "type": "bool"
        }
      ],
      "payable": false,
      "stateMutability": "nonpayable",
      "type": "function"
    },
    {
      "constant": true,
      "inputs": [
        {
          "internalType": "address",
          "name": "_address",
          "type": "address"
        }
      ],
      "name": "hasVoted",
      "outputs": [
        {
          "internalType": "bool",
          "name": "",
          "type": "bool"
        }
      ],
      "payable": false,
      "stateMutability": "view",
      "type": "function"
    }
  ],
  "bytecode": "0x60806040523480156200001157600080fd5b506040516200299338038062002993833981810160405262000037919081019062000216565b85600260006101000a81548173ffffffffffffffffffffffffffffffffffffffff021916908373ffffffffffffffffffffffffffffffffffffffff160217905550846003908051906020019062000090929190620000dd565b508360049080519060200190620000a9929190620000dd565b5082600581905550816006819055508060089080519060200190620000d0929190620000dd565b50505050505050620003fa565b828054600181600116156101000203166002900490600052602060002090601f016020900481019282601f106200012057805160ff191683800117855562000151565b8280016001018555821562000151579182015b828111156200015057825182559160200191906001019062000133565b5b50905062000160919062000164565b5090565b6200018991905b80821115620001855760008160009055506001016200016b565b5090565b90565b6000815190506200019d81620003c6565b92915050565b600082601f830112620001b557600080fd5b8151620001cc620001c68262000325565b620002f7565b91508082526020830160208301858383011115620001e957600080fd5b620001f683828462000390565b50505092915050565b6000815190506200021081620003e0565b92915050565b60008060008060008060c087890312156200023057600080fd5b60006200024089828a016200018c565b965050602087015167ffffffffffffffff8111156200025e57600080fd5b6200026c89828a01620001a3565b955050604087015167ffffffffffffffff8111156200028a57600080fd5b6200029889828a01620001a3565b9450506060620002ab89828a01620001ff565b9350506080620002be89828a01620001ff565b92505060a087015167ffffffffffffffff811115620002dc57600080fd5b620002ea89828a01620001a3565b9150509295509295509295565b6000604051905081810181811067ffffffffffffffff821117156200031b57600080fd5b8060405250919050565b600067ffffffffffffffff8211156200033d57600080fd5b601f19601f8301169050602081019050919050565b60006200035f8262000366565b9050919050565b600073ffffffffffffffffffffffffffffffffffffffff82169050919050565b6000819050919050565b60005b83811015620003b057808201518184015260208101905062000393565b83811115620003c0576000848401525b50505050565b620003d18162000352565b8114620003dd57600080fd5b50565b620003eb8162000386565b8114620003f757600080fd5b50565b612589806200040a6000396000f3fe608060405234801561001057600080fd5b50600436106101375760003560e01c806378e97925116100b85780639baec8b91161007c5780639baec8b9146103415780639bd05a0d1461035f578063ba71bef01461037d578063da36cffe146103ad578063e03a9191146103dd578063fc36e15b146103fb57610137565b806378e979251461029b5780637ed17751146102b957806384865b66146102d557806384d1d91e146102f3578063867d4dbb1461032357610137565b80634404d1ed116100ff5780634404d1ed146101e05780634717f97c146102115780634a79d50c1461022f57806370b3ae231461024d5780637284e4161461027d57610137565b806309eef43e1461013c5780631d74c14b1461016c57806326541b561461018a5780633197cbb6146101a657806338db6dd3146101c4575b600080fd5b61015660048036036101519190810190611a7b565b61042b565b60405161016391906121f1565b60405180910390f35b610174610481565b604051610181919061214e565b60405180910390f35b6101a4600480360361019f9190810190611b2e565b6104a7565b005b6101ae610688565b6040516101bb9190612360565b60405180910390f35b6101de60048036036101d99190810190611a7b565b61068e565b005b6101fa60048036036101f59190810190611ba3565b6108eb565b60405161020892919061222e565b60405180910390f35b610219610a4c565b60405161022691906121cf565b60405180910390f35b610237610ae8565b604051610244919061220c565b60405180910390f35b61026760048036036102629190810190611ba3565b610b86565b6040516102749190612360565b60405180910390f35b610285610ba7565b604051610292919061220c565b60405180910390f35b6102a3610c45565b6040516102b09190612360565b60405180910390f35b6102d360048036036102ce9190810190611a7b565b610c4b565b005b6102dd610f4d565b6040516102ea9190612360565b60405180910390f35b61030d60048036036103089190810190611aa4565b610f5a565b60405161031a91906121f1565b60405180910390f35b61032b61104c565b604051610338919061218b565b60405180910390f35b610349611209565b60405161035691906121ad565b60405180910390f35b6103676113ac565b6040516103749190612169565b60405180910390f35b61039760048036036103929190810190611a7b565b61143a565b6040516103a49190612345565b60405180910390f35b6103c760048036036103c29190810190611a7b565b61150d565b6040516103d491906121f1565b60405180910390f35b6103e561157c565b6040516103f2919061220c565b60405180910390f35b61041560048036036104109190810190611ae9565b61161a565b60405161042291906121f1565b60405180910390f35b6000600a60008373ffffffffffffffffffffffffffffffffffffffff1673ffffffffffffffffffffffffffffffffffffffff16815260200190815260200160002060009054906101000a900460ff169050919050565b600260009054906101000a900473ffffffffffffffffffffffffffffffffffffffff1681565b600260009054906101000a900473ffffffffffffffffffffffffffffffffffffffff1673ffffffffffffffffffffffffffffffffffffffff163373ffffffffffffffffffffffffffffffffffffffff1614610537576040517f08c379a000000000000000000000000000000000000000000000000000000000815260040161052e906122c5565b60405180910390fd5b600554421061057b576040517f08c379a000000000000000000000000000000000000000000000000000000000815260040161057290612325565b60405180910390fd5b6007604051806040016040528086868080601f016020809104026020016040519081016040528093929190818152602001838380828437600081840152601f19601f82011690508083019250505050505050815260200184848080601f016020809104026020016040519081016040528093929190818152602001838380828437600081840152601f19601f820116905080830192505050505050508152509080600181540180825580915050906001820390600052602060002090600202016000909192909190915060008201518160000190805190602001906106619291906117e6565b50602082015181600101908051906020019061067e9291906117e6565b5050505050505050565b60065481565b600260009054906101000a900473ffffffffffffffffffffffffffffffffffffffff1673ffffffffffffffffffffffffffffffffffffffff163373ffffffffffffffffffffffffffffffffffffffff161461071e576040517f08c379a0000000000000000000000000000000000000000000000000000000008152600401610715906122c5565b60405180910390fd5b6005544210610762576040517f08c379a000000000000000000000000000000000000000000000000000000000815260040161075990612325565b60405180910390fd5b6001808290806001815401808255809150509060018203906000526020600020016000909192909190916101000a81548173ffffffffffffffffffffffffffffffffffffffff021916908373ffffffffffffffffffffffffffffffffffffffff160217905550036000808373ffffffffffffffffffffffffffffffffffffffff1673ffffffffffffffffffffffffffffffffffffffff1681526020019081526020016000206000018190555060016000808373ffffffffffffffffffffffffffffffffffffffff1673ffffffffffffffffffffffffffffffffffffffff16815260200190815260200160002060010160006101000a81548160ff021916908315150217905550806000808373ffffffffffffffffffffffffffffffffffffffff1673ffffffffffffffffffffffffffffffffffffffff16815260200190815260200160002060010160016101000a81548173ffffffffffffffffffffffffffffffffffffffff021916908373ffffffffffffffffffffffffffffffffffffffff16021790555050565b600781815481106108f857fe5b9060005260206000209060020201600091509050806000018054600181600116156101000203166002900480601f0160208091040260200160405190810160405280929190818152602001828054600181600116156101000203166002900480156109a45780601f10610979576101008083540402835291602001916109a4565b820191906000526020600020905b81548152906001019060200180831161098757829003601f168201915b505050505090806001018054600181600116156101000203166002900480601f016020809104026020016040519081016040528092919081815260200182805460018160011615610100020316600290048015610a425780601f10610a1757610100808354040283529160200191610a42565b820191906000526020600020905b815481529060010190602001808311610a2557829003601f168201915b5050505050905082565b60606006544211610a92576040517f08c379a0000000000000000000000000000000000000000000000000000000008152600401610a8990612265565b60405180910390fd5b6009805480602002602001604051908101604052809291908181526020018280548015610ade57602002820191906000526020600020905b815481526020019060010190808311610aca575b5050505050905090565b60038054600181600116156101000203166002900480601f016020809104026020016040519081016040528092919081815260200182805460018160011615610100020316600290048015610b7e5780601f10610b5357610100808354040283529160200191610b7e565b820191906000526020600020905b815481529060010190602001808311610b6157829003601f168201915b505050505081565b60098181548110610b9357fe5b906000526020600020016000915090505481565b60048054600181600116156101000203166002900480601f016020809104026020016040519081016040528092919081815260200182805460018160011615610100020316600290048015610c3d5780601f10610c1257610100808354040283529160200191610c3d565b820191906000526020600020905b815481529060010190602001808311610c2057829003601f168201915b505050505081565b60055481565b600260009054906101000a900473ffffffffffffffffffffffffffffffffffffffff1673ffffffffffffffffffffffffffffffffffffffff163373ffffffffffffffffffffffffffffffffffffffff1614610cdb576040517f08c379a0000000000000000000000000000000000000000000000000000000008152600401610cd2906122c5565b60405180910390fd5b6005544210610d1f576040517f08c379a0000000000000000000000000000000000000000000000000000000008152600401610d1690612325565b60405180910390fd5b600115156000808373ffffffffffffffffffffffffffffffffffffffff1673ffffffffffffffffffffffffffffffffffffffff16815260200190815260200160002060010160009054906101000a900460ff16151514610db4576040517f08c379a0000000000000000000000000000000000000000000000000000000008152600401610dab906122e5565b60405180910390fd5b60008060008373ffffffffffffffffffffffffffffffffffffffff1673ffffffffffffffffffffffffffffffffffffffff16815260200190815260200160002060010160006101000a81548160ff02191690831515021790555060008060008373ffffffffffffffffffffffffffffffffffffffff1673ffffffffffffffffffffffffffffffffffffffff168152602001908152602001600020600001549050600060018080805490500381548110610e6957fe5b9060005260206000200160009054906101000a900473ffffffffffffffffffffffffffffffffffffffff1690508060018381548110610ea457fe5b9060005260206000200160006101000a81548173ffffffffffffffffffffffffffffffffffffffff021916908373ffffffffffffffffffffffffffffffffffffffff160217905550816000808373ffffffffffffffffffffffffffffffffffffffff1673ffffffffffffffffffffffffffffffffffffffff168152602001908152602001600020600001819055506001805480919060019003610f479190611866565b50505050565b6000600180549050905090565b6000600260009054906101000a900473ffffffffffffffffffffffffffffffffffffffff1673ffffffffffffffffffffffffffffffffffffffff163373ffffffffffffffffffffffffffffffffffffffff1614610fec576040517f08c379a0000000000000000000000000000000000000000000000000000000008152600401610fe3906122c5565b60405180910390fd5b6006544211611030576040517f08c379a000000000000000000000000000000000000000000000000000000000815260040161102790612265565b60405180910390fd5b828260099190611041929190611892565b506001905092915050565b6060600260009054906101000a900473ffffffffffffffffffffffffffffffffffffffff1673ffffffffffffffffffffffffffffffffffffffff163373ffffffffffffffffffffffffffffffffffffffff16146110de576040517f08c379a00000000000000000000000000000000000000000000000000000000081526004016110d5906122c5565b60405180910390fd5b6006544211611122576040517f08c379a000000000000000000000000000000000000000000000000000000000815260040161111990612265565b60405180910390fd5b600b805480602002602001604051908101604052809291908181526020016000905b82821015611200578382906000526020600020018054600181600116156101000203166002900480601f0160208091040260200160405190810160405280929190818152602001828054600181600116156101000203166002900480156111ec5780601f106111c1576101008083540402835291602001916111ec565b820191906000526020600020905b8154815290600101906020018083116111cf57829003601f168201915b505050505081526020019060010190611144565b50505050905090565b60606007805480602002602001604051908101604052809291908181526020016000905b828210156113a35783829060005260206000209060020201604051806040016040529081600082018054600181600116156101000203166002900480601f0160208091040260200160405190810160405280929190818152602001828054600181600116156101000203166002900480156112e95780601f106112be576101008083540402835291602001916112e9565b820191906000526020600020905b8154815290600101906020018083116112cc57829003601f168201915b50505050508152602001600182018054600181600116156101000203166002900480601f01602080910402602001604051908101604052809291908181526020018280546001816001161561010002031660029004801561138b5780601f106113605761010080835404028352916020019161138b565b820191906000526020600020905b81548152906001019060200180831161136e57829003601f168201915b5050505050815250508152602001906001019061122d565b50505050905090565b6060600180548060200260200160405190810160405280929190818152602001828054801561143057602002820191906000526020600020905b8160009054906101000a900473ffffffffffffffffffffffffffffffffffffffff1673ffffffffffffffffffffffffffffffffffffffff16815260200190600101908083116113e6575b5050505050905090565b6114426118df565b6000808373ffffffffffffffffffffffffffffffffffffffff1673ffffffffffffffffffffffffffffffffffffffff168152602001908152602001600020604051806060016040529081600082015481526020016001820160009054906101000a900460ff161515151581526020016001820160019054906101000a900473ffffffffffffffffffffffffffffffffffffffff1673ffffffffffffffffffffffffffffffffffffffff1673ffffffffffffffffffffffffffffffffffffffff16815250509050919050565b60008060018054905014156115255760009050611577565b6000808373ffffffffffffffffffffffffffffffffffffffff1673ffffffffffffffffffffffffffffffffffffffff16815260200190815260200160002060010160009054906101000a900460ff1690505b919050565b60088054600181600116156101000203166002900480601f0160208091040260200160405190810160405280929190818152602001828054600181600116156101000203166002900480156116125780601f106115e757610100808354040283529160200191611612565b820191906000526020600020905b8154815290600101906020018083116115f557829003601f168201915b505050505081565b60006005544211801561162e575060065442105b61166d576040517f08c379a0000000000000000000000000000000000000000000000000000000008152600401611664906122a5565b60405180910390fd5b6116763361150d565b6116b5576040517f08c379a00000000000000000000000000000000000000000000000000000000081526004016116ac90612285565b60405180910390fd5b600a60003373ffffffffffffffffffffffffffffffffffffffff1673ffffffffffffffffffffffffffffffffffffffff16815260200190815260200160002060009054906101000a900460ff1615611742576040517f08c379a000000000000000000000000000000000000000000000000000000000815260040161173990612305565b60405180910390fd5b600b838390918060018154018082558091505090600182039060005260206000200160009091929390919293909192909192509190611782929190611918565b50506001600a60003373ffffffffffffffffffffffffffffffffffffffff1673ffffffffffffffffffffffffffffffffffffffff16815260200190815260200160002060006101000a81548160ff0219169083151502179055506001905092915050565b828054600181600116156101000203166002900490600052602060002090601f016020900481019282601f1061182757805160ff1916838001178555611855565b82800160010185558215611855579182015b82811115611854578251825591602001919060010190611839565b5b5090506118629190611998565b5090565b81548183558181111561188d5781836000526020600020918201910161188c9190611998565b5b505050565b8280548282559060005260206000209081019282156118ce579160200282015b828111156118cd5782358255916020019190600101906118b2565b5b5090506118db9190611998565b5090565b604051806060016040528060008152602001600015158152602001600073ffffffffffffffffffffffffffffffffffffffff1681525090565b828054600181600116156101000203166002900490600052602060002090601f016020900481019282601f1061195957803560ff1916838001178555611987565b82800160010185558215611987579182015b8281111561198657823582559160200191906001019061196b565b5b5090506119949190611998565b5090565b6119ba91905b808211156119b657600081600090555060010161199e565b5090565b90565b6000813590506119cc81612518565b92915050565b60008083601f8401126119e457600080fd5b8235905067ffffffffffffffff8111156119fd57600080fd5b602083019150836020820283011115611a1557600080fd5b9250929050565b60008083601f840112611a2e57600080fd5b8235905067ffffffffffffffff811115611a4757600080fd5b602083019150836001820283011115611a5f57600080fd5b9250929050565b600081359050611a758161252f565b92915050565b600060208284031215611a8d57600080fd5b6000611a9b848285016119bd565b91505092915050565b60008060208385031215611ab757600080fd5b600083013567ffffffffffffffff811115611ad157600080fd5b611add858286016119d2565b92509250509250929050565b60008060208385031215611afc57600080fd5b600083013567ffffffffffffffff811115611b1657600080fd5b611b2285828601611a1c565b92509250509250929050565b60008060008060408587031215611b4457600080fd5b600085013567ffffffffffffffff811115611b5e57600080fd5b611b6a87828801611a1c565b9450945050602085013567ffffffffffffffff811115611b8957600080fd5b611b9587828801611a1c565b925092505092959194509250565b600060208284031215611bb557600080fd5b6000611bc384828501611a66565b91505092915050565b6000611bd88383611c24565b60208301905092915050565b6000611bf08383611e06565b905092915050565b6000611c0483836120aa565b905092915050565b6000611c188383612130565b60208301905092915050565b611c2d8161248c565b82525050565b611c3c8161248c565b82525050565b6000611c4d826123bb565b611c578185612426565b9350611c628361237b565b8060005b83811015611c93578151611c7a8882611bcc565b9750611c85836123f2565b925050600181019050611c66565b5085935050505092915050565b6000611cab826123c6565b611cb58185612437565b935083602082028501611cc78561238b565b8060005b85811015611d035784840389528151611ce48582611be4565b9450611cef836123ff565b925060208a01995050600181019050611ccb565b50829750879550505050505092915050565b6000611d20826123d1565b611d2a8185612448565b935083602082028501611d3c8561239b565b8060005b85811015611d785784840389528151611d598582611bf8565b9450611d648361240c565b925060208a01995050600181019050611d40565b50829750879550505050505092915050565b6000611d95826123dc565b611d9f8185612459565b9350611daa836123ab565b8060005b83811015611ddb578151611dc28882611c0c565b9750611dcd83612419565b925050600181019050611dae565b5085935050505092915050565b611df18161249e565b82525050565b611e008161249e565b82525050565b6000611e11826123e7565b611e1b818561246a565b9350611e2b8185602086016124d4565b611e3481612507565b840191505092915050565b6000611e4a826123e7565b611e54818561247b565b9350611e648185602086016124d4565b611e6d81612507565b840191505092915050565b6000611e85601b8361247b565b91507f6f6e6c7920616c6c6f77656420616674657220656c656374696f6e00000000006000830152602082019050919050565b6000611ec560288361247b565b91507f6d6573736167652073656e646572206973206e6f74206120726567697374657260008301527f656420766f7465720000000000000000000000000000000000000000000000006020830152604082019050919050565b6000611f2b601c8361247b565b91507f6f6e6c7920616c6c6f77656420647572696e6720656c656374696f6e000000006000830152602082019050919050565b6000611f6b603f8361247b565b91507f6f6e6c792074686520726567697374726174696f6e20617574686f726974792060008301527f697320616c6c6f77656420746f2075736520746869732066756e6374696f6e006020830152604082019050919050565b6000611fd160298361247b565b91507f746869732061646472657373206973206e6f742072656769737465726564206160008301527f73206120766f74657200000000000000000000000000000000000000000000006020830152604082019050919050565b600061203760168361247b565b91507f6f6e6c79206f6e6520766f746520706f737369626c65000000000000000000006000830152602082019050919050565b6000612077601c8361247b565b91507f6f6e6c7920616c6c6f776564206265666f726520656c656374696f6e000000006000830152602082019050919050565b600060408301600083015184820360008601526120c78282611e06565b915050602083015184820360208601526120e18282611e06565b9150508091505092915050565b6060820160008201516121046000850182612130565b5060208201516121176020850182611de8565b50604082015161212a6040850182611c24565b50505050565b612139816124ca565b82525050565b612148816124ca565b82525050565b60006020820190506121636000830184611c33565b92915050565b600060208201905081810360008301526121838184611c42565b905092915050565b600060208201905081810360008301526121a58184611ca0565b905092915050565b600060208201905081810360008301526121c78184611d15565b905092915050565b600060208201905081810360008301526121e98184611d8a565b905092915050565b60006020820190506122066000830184611df7565b92915050565b600060208201905081810360008301526122268184611e3f565b905092915050565b600060408201905081810360008301526122488185611e3f565b9050818103602083015261225c8184611e3f565b90509392505050565b6000602082019050818103600083015261227e81611e78565b9050919050565b6000602082019050818103600083015261229e81611eb8565b9050919050565b600060208201905081810360008301526122be81611f1e565b9050919050565b600060208201905081810360008301526122de81611f5e565b9050919050565b600060208201905081810360008301526122fe81611fc4565b9050919050565b6000602082019050818103600083015261231e8161202a565b9050919050565b6000602082019050818103600083015261233e8161206a565b9050919050565b600060608201905061235a60008301846120ee565b92915050565b6000602082019050612375600083018461213f565b92915050565b6000819050602082019050919050565b6000819050602082019050919050565b6000819050602082019050919050565b6000819050602082019050919050565b600081519050919050565b600081519050919050565b600081519050919050565b600081519050919050565b600081519050919050565b6000602082019050919050565b6000602082019050919050565b6000602082019050919050565b6000602082019050919050565b600082825260208201905092915050565b600082825260208201905092915050565b600082825260208201905092915050565b600082825260208201905092915050565b600082825260208201905092915050565b600082825260208201905092915050565b6000612497826124aa565b9050919050565b60008115159050919050565b600073ffffffffffffffffffffffffffffffffffffffff82169050919050565b6000819050919050565b60005b838110156124f25780820151818401526020810190506124d7565b83811115612501576000848401525b50505050565b6000601f19601f8301169050919050565b6125218161248c565b811461252c57600080fd5b50565b612538816124ca565b811461254357600080fd5b5056fea365627a7a7231582044281441a66b41f3db790b4641fa43518115f08770f0eca7d6aab590eb521f406c6578706572696d656e74616cf564736f6c63430005100040",
  "source": "pragma solidity ^0.5.16;\n\n\npragma experimental ABIEncoderV2; // needed to be able to pass string arrays and structs into functions\n\n/// @dev use this to register and unregister voters\ncontract RegistrationAuthority {\n\n    address public registrationAuthority;\n\n    address[] public deployedElections; // keeps a list of all deployed elections\n\n    /// @dev initializes the contract and sets the contract registration authority to be the deployer of the contract\n    constructor() public {\n        registrationAuthority = msg.sender;\n    }\n\n    /// @dev only the registration authority is allowed functions marked with this\n    /// @notice functions with this modifier can only be used by the administrator\n    modifier restricted() {\n        require(msg.sender == registrationAuthority, \"only the registration authority is allowed to use this function\");\n        _;\n    }\n\n    /*****Election related function******/\n    /// @dev use this to deploy new Election contracts and reset the temporary options lists afterwards\n    /// @param _title specifies the name of the election (e.g. national elections)\n    /// @param _description specifies the description of the election\n    /// @param _startTime specifies the beginning of the election (since Unix Epoch in seconds)\n    /// @param _endTime specifies a time limit until when the election is open (since Unix Epoch in seconds)\n    function createElection(\n        string memory _title,\n        string memory _description,\n        uint _startTime,\n        uint _endTime,\n        string memory _encryptionKey)\n        public restricted {\n        deployedElections.push(\n            address(\n                new Election(\n                    registrationAuthority,\n                    _title,\n                    _description,\n                    _startTime,\n                    _endTime,\n                    _encryptionKey\n                )\n            )\n        );\n    }\n\n    /// @dev use this to return a list of addresses of all deployed Election contracts\n    /// @return a list of addresses of all deployed Election contracts\n    function getDeployedElections() public view returns(address[] memory) {\n        return deployedElections;\n    }\n}\n\n/// @dev This is the actual election contract where users can vote\n/// @dev Security by design: secret sharing, allows voters one time voting\ncontract Election {\n\n    struct Voter {\n        uint listPointer;\n        bool isVoter;\n        address ethAddress;\n    }\n\n    mapping(address => Voter) private votersList;\n    address[] private votersReferenceList;\n\n    /*****Voter related function******/\n    /// @dev use this to register or update a voter\n    function registerVoter(address _voter) external restricted beforeElection {\n\n        //ONLY ONE TIME ADDRESS REGISTRATION POSSIBLE PER ELECTION\n        votersList[_voter].listPointer = votersReferenceList.push(_voter) - 1;\n        votersList[_voter].isVoter = true;\n        votersList[_voter].ethAddress = _voter;\n\n    }\n\n    /// @dev use this to unregister a voter\n    function unregisterVoter(address _voter) external restricted beforeElection{\n        require(votersList[_voter].isVoter == true, \"this address is not registered as a voter\");\n\n        // Delete the desired entry by moving the last item in the array to the row to delete, and then shorten the array by one\n        votersList[_voter].isVoter = false;\n        uint rowToDelete = votersList[_voter].listPointer;\n        address keyToMove = votersReferenceList[votersReferenceList.length - 1];\n        votersReferenceList[rowToDelete] = keyToMove;\n        votersList[keyToMove].listPointer = rowToDelete;\n        votersReferenceList.length--;\n    }\n\n    /// @dev use this to check whether an address belongs to a valid voter\n    function isRegisteredVoter(address _voter) public view returns(bool) {\n        if (votersReferenceList.length == 0) return false;\n        return (votersList[_voter].isVoter);\n    }\n\n    /// @dev use this this to get the number of registered voters\n    function getNumberOfVoters() public view returns(uint) {\n        return votersReferenceList.length;\n    }\n\n    /// @dev get a list of registered voters\n    function getListOfVoters() public view returns(address[] memory x) {\n        return votersReferenceList;\n    }\n\n    /// @dev get details of a specific voter\n    function getVoterDetails(address _voter) public view returns(Voter memory) {\n        return votersList[_voter];\n    }\n\n\n    /*****Election related function******/\n    struct Ballot {\n        string name;\n        string party;\n    }\n\n    address public registrationAuthority;\n    string public title;\n    string public description;\n    uint public startTime;\n    uint public endTime;\n    Ballot[] public ballotList;\n    string public encryptionKey;\n    uint[] public publishedResult;\n\n    mapping(address => bool) private votersCheckList; // records that the voter has voted\n    string[] private encryptedVoteList; // keeps a list of all encrypted votes\n\n    /// @dev initializes the contract with all required parameters\n    constructor(\n        address _registrationAuthority,\n        string memory _title,\n        string memory _description,\n        uint _startTime,\n        uint _endTime,\n        string memory _encryptionKey\n    ) public {\n        registrationAuthority=_registrationAuthority;\n        //registrationAuthorityContractAdd = msg.sender;\n        title = _title;\n        description = _description;\n        startTime = _startTime;\n        endTime = _endTime;\n        encryptionKey = _encryptionKey;\n    }\n\n    /// @dev only the registration authority is allowed functions marked with this\n    /// @notice functions with this modifier can only be used by the registration authority\n    modifier restricted() {\n        require(msg.sender == registrationAuthority, \"only the registration authority is allowed to use this function\");\n        _;\n    }\n\n    /// @dev functions marked with this can be called before the specified start time\n    modifier beforeElection() {\n        require(now < startTime, \"only allowed before election\");\n        _;\n    }\n\n    /// @dev functions marked with this can be called during the specified time frame\n    modifier duringElection() {\n        require(now > startTime && now < endTime, \"only allowed during election\");\n        _;\n    }\n\n    /// @dev functions marked with this can be called after the specified end time\n    modifier afterElection() {\n        require(now > endTime, \"only allowed after election\");\n        _;\n    }\n\n    /// @dev add an option to the ballot before the election starts\n    function addCandidate(string calldata _name, string calldata _party) external restricted beforeElection {\n        ballotList.push(Ballot({ name: _name, party: _party }));\n    }\n\n    /// @dev get all available options on the ballot\n    function getBallot() external view returns(Ballot[] memory x) {\n        return ballotList;\n    }\n\n\n\n    /// @dev get the list of encrypted votes of a voter, only allowed after the election is over\n    function getencryptedVoteList() external view restricted afterElection returns(string[] memory success) {\n        return encryptedVoteList;\n    }\n    /// @dev publish the decrypted version of the sum of all votes for each candidate\n    function publishResults(uint[] calldata results) external restricted afterElection returns(bool success) {\n        publishedResult = results;\n        return true;\n    }\n\n    /// @dev returns the list of final votes for each candidate\n    function getResults() external view afterElection returns(uint[] memory results) {\n        return publishedResult;\n    }\n\n    /// @dev this is used to cast a vote. the vote is homomorphically encrypted\n    /// @dev allows users to vote multiple times, invalidating the previous vote\n    function vote(string calldata _encryptedVote) external duringElection returns(bool success) {\n        require(isRegisteredVoter(msg.sender), \"message sender is not a registered voter\");\n        require(!votersCheckList[msg.sender],\"only one vote possible\");\n        encryptedVoteList.push(_encryptedVote);\n        votersCheckList[msg.sender] = true;\n\n        return true;\n    }\n\n    /// @dev find out whether a voter has submitted their vote\n    function hasVoted(address _address) public view returns(bool) {\n        return votersCheckList[_address];\n    }\n\n}",
  "sourcePath": "/home/faris/NITCVote/contracts/Elections.sol",
  "compiler": {
    "name": "solc",
    "version": "0.5.16+commit.9c3226ce.Emscripten.clang"
  },
  "schemaVersion": "3.2.0",
  "updatedAt": "2020-06-19T11:01:58.715Z",
  "devdoc": {
    "details": "This is the actual election contract where users can voteSecurity by design: secret sharing, allows voters one time voting",
    "methods": {
      "addCandidate(string,string)": {
        "details": "add an option to the ballot before the election starts"
      },
      "constructor": {
        "details": "initializes the contract with all required parameters"
      },
      "getBallot()": {
        "details": "get all available options on the ballot"
      },
      "getListOfVoters()": {
        "details": "get a list of registered voters"
      },
      "getNumberOfVoters()": {
        "details": "use this this to get the number of registered voters"
      },
      "getResults()": {
        "details": "returns the list of final votes for each candidate"
      },
      "getVoterDetails(address)": {
        "details": "get details of a specific voter"
      },
      "getencryptedVoteList()": {
        "details": "get the list of encrypted votes of a voter, only allowed after the election is over"
      },
      "hasVoted(address)": {
        "details": "find out whether a voter has submitted their vote"
      },
      "isRegisteredVoter(address)": {
        "details": "use this to check whether an address belongs to a valid voter"
      },
      "publishResults(uint256[])": {
        "details": "publish the decrypted version of the sum of all votes for each candidate"
      },
      "registerVoter(address)": {
        "details": "use this to register or update a voter"
      },
      "unregisterVoter(address)": {
        "details": "use this to unregister a voter"
      },
      "vote(string)": {
        "details": "this is used to cast a vote. the vote is homomorphically encryptedallows users to vote multiple times, invalidating the previous vote"
      }
    }
  },
  "userdoc": {
    "methods": {}
  }
}