{
  "contractName": "ElectionFactory",
  "abi": [
    {
      "inputs": [
        {
          "internalType": "address",
          "name": "_registrationAuthority",
          "type": "address"
        }
      ],
      "payable": false,
      "stateMutability": "nonpayable",
      "type": "constructor"
    },
    {
      "constant": true,
      "inputs": [
        {
          "internalType": "uint256",
          "name": "",
          "type": "uint256"
        }
      ],
      "name": "deployedElections",
      "outputs": [
        {
          "internalType": "address",
          "name": "",
          "type": "address"
        }
      ],
      "payable": false,
      "stateMutability": "view",
      "type": "function"
    },
    {
      "constant": true,
      "inputs": [],
      "name": "factoryManager",
      "outputs": [
        {
          "internalType": "address",
          "name": "",
          "type": "address"
        }
      ],
      "payable": false,
      "stateMutability": "view",
      "type": "function"
    },
    {
      "constant": true,
      "inputs": [],
      "name": "registrationAuthority",
      "outputs": [
        {
          "internalType": "address",
          "name": "",
          "type": "address"
        }
      ],
      "payable": false,
      "stateMutability": "view",
      "type": "function"
    },
    {
      "constant": false,
      "inputs": [
        {
          "internalType": "string",
          "name": "_title",
          "type": "string"
        },
        {
          "internalType": "string",
          "name": "_description",
          "type": "string"
        },
        {
          "internalType": "uint256",
          "name": "_startTime",
          "type": "uint256"
        },
        {
          "internalType": "uint256",
          "name": "_timeLimit",
          "type": "uint256"
        },
        {
          "internalType": "string",
          "name": "_encryptionKey",
          "type": "string"
        }
      ],
      "name": "createElection",
      "outputs": [],
      "payable": false,
      "stateMutability": "nonpayable",
      "type": "function"
    },
    {
      "constant": true,
      "inputs": [],
      "name": "getDeployedElections",
      "outputs": [
        {
          "internalType": "address[]",
          "name": "",
          "type": "address[]"
        }
      ],
      "payable": false,
      "stateMutability": "view",
      "type": "function"
    }
  ],
  "bytecode": "0x608060405234801561001057600080fd5b50604051612c9d380380612c9d833981810160405261003291908101906100ce565b336000806101000a81548173ffffffffffffffffffffffffffffffffffffffff021916908373ffffffffffffffffffffffffffffffffffffffff16021790555080600160006101000a81548173ffffffffffffffffffffffffffffffffffffffff021916908373ffffffffffffffffffffffffffffffffffffffff16021790555050610140565b6000815190506100c881610129565b92915050565b6000602082840312156100e057600080fd5b60006100ee848285016100b9565b91505092915050565b600061010282610109565b9050919050565b600073ffffffffffffffffffffffffffffffffffffffff82169050919050565b610132816100f7565b811461013d57600080fd5b50565b612b4e8061014f6000396000f3fe60806040523480156200001157600080fd5b50600436106200005e5760003560e01c8063032b5a7314620000635780631d74c14b146200008557806393b3ea4514620000a7578063ca30659414620000c7578063f18b4f8e14620000e9575b600080fd5b6200006d6200011f565b6040516200007c919062000697565b60405180910390f35b6200008f62000144565b6040516200009e919062000697565b60405180910390f35b620000c56004803603620000bf91908101906200043e565b6200016a565b005b620000d1620002f0565b604051620000e0919062000746565b60405180910390f35b6200010760048036036200010191908101906200050b565b62000380565b60405162000116919062000697565b60405180910390f35b6000809054906101000a900473ffffffffffffffffffffffffffffffffffffffff1681565b600160009054906101000a900473ffffffffffffffffffffffffffffffffffffffff1681565b6000809054906101000a900473ffffffffffffffffffffffffffffffffffffffff1673ffffffffffffffffffffffffffffffffffffffff163373ffffffffffffffffffffffffffffffffffffffff1614620001fc576040517f08c379a0000000000000000000000000000000000000000000000000000000008152600401620001f3906200076a565b60405180910390fd5b60026000809054906101000a900473ffffffffffffffffffffffffffffffffffffffff16600160009054906101000a900473ffffffffffffffffffffffffffffffffffffffff1687878787876040516200025690620003bd565b620002689796959493929190620006b4565b604051809103906000f08015801562000285573d6000803e3d6000fd5b5090806001815401808255809150509060018203906000526020600020016000909192909190916101000a81548173ffffffffffffffffffffffffffffffffffffffff021916908373ffffffffffffffffffffffffffffffffffffffff160217905550505050505050565b606060028054806020026020016040519081016040528092919081815260200182805480156200037657602002820191906000526020600020905b8160009054906101000a900473ffffffffffffffffffffffffffffffffffffffff1673ffffffffffffffffffffffffffffffffffffffff16815260200190600101908083116200032b575b5050505050905090565b600281815481106200038e57fe5b906000526020600020016000915054906101000a900473ffffffffffffffffffffffffffffffffffffffff1681565b61222180620008eb83390190565b600082601f830112620003dd57600080fd5b8135620003f4620003ee82620007ba565b6200078c565b915080825260208301602083018583830111156200041157600080fd5b6200041e8382846200087a565b50505092915050565b6000813590506200043881620008d0565b92915050565b600080600080600060a086880312156200045757600080fd5b600086013567ffffffffffffffff8111156200047257600080fd5b6200048088828901620003cb565b955050602086013567ffffffffffffffff8111156200049e57600080fd5b620004ac88828901620003cb565b9450506040620004bf8882890162000427565b9350506060620004d28882890162000427565b925050608086013567ffffffffffffffff811115620004f057600080fd5b620004fe88828901620003cb565b9150509295509295909350565b6000602082840312156200051e57600080fd5b60006200052e8482850162000427565b91505092915050565b600062000545838362000551565b60208301905092915050565b6200055c816200083c565b82525050565b6200056d816200083c565b82525050565b60006200058082620007f7565b6200058c81856200081a565b93506200059983620007e7565b8060005b83811015620005d0578151620005b4888262000537565b9750620005c1836200080d565b9250506001810190506200059d565b5085935050505092915050565b6000620005ea8262000802565b620005f681856200082b565b93506200060881856020860162000889565b6200061381620008bf565b840191505092915050565b60006200062d6038836200082b565b91507f6f6e6c792074686520666163746f7279206d616e6167657220697320616c6c6f60008301527f77656420746f2075736520746869732066756e6374696f6e00000000000000006020830152604082019050919050565b620006918162000870565b82525050565b6000602082019050620006ae600083018462000562565b92915050565b600060e082019050620006cb600083018a62000562565b620006da602083018962000562565b8181036040830152620006ee8188620005dd565b90508181036060830152620007048187620005dd565b905062000715608083018662000686565b6200072460a083018562000686565b81810360c0830152620007388184620005dd565b905098975050505050505050565b6000602082019050818103600083015262000762818462000573565b905092915050565b6000602082019050818103600083015262000785816200061e565b9050919050565b6000604051905081810181811067ffffffffffffffff82111715620007b057600080fd5b8060405250919050565b600067ffffffffffffffff821115620007d257600080fd5b601f19601f8301169050602081019050919050565b6000819050602082019050919050565b600081519050919050565b600081519050919050565b6000602082019050919050565b600082825260208201905092915050565b600082825260208201905092915050565b6000620008498262000850565b9050919050565b600073ffffffffffffffffffffffffffffffffffffffff82169050919050565b6000819050919050565b82818337600083830152505050565b60005b83811015620008a95780820151818401526020810190506200088c565b83811115620008b9576000848401525b50505050565b6000601f19601f8301169050919050565b620008db8162000870565b8114620008e757600080fd5b5056fe60806040523480156200001157600080fd5b506040516200222138038062002221833981810160405262000037919081019062000298565b336000806101000a81548173ffffffffffffffffffffffffffffffffffffffff021916908373ffffffffffffffffffffffffffffffffffffffff16021790555085600260006101000a81548173ffffffffffffffffffffffffffffffffffffffff021916908373ffffffffffffffffffffffffffffffffffffffff16021790555086600160006101000a81548173ffffffffffffffffffffffffffffffffffffffff021916908373ffffffffffffffffffffffffffffffffffffffff1602179055508460039080519060200190620001119291906200015f565b5083600490805190602001906200012a9291906200015f565b5082600581905550816006819055508060089080519060200190620001519291906200015f565b505050505050505062000493565b828054600181600116156101000203166002900490600052602060002090601f016020900481019282601f10620001a257805160ff1916838001178555620001d3565b82800160010185558215620001d3579182015b82811115620001d2578251825591602001919060010190620001b5565b5b509050620001e29190620001e6565b5090565b6200020b91905b8082111562000207576000816000905550600101620001ed565b5090565b90565b6000815190506200021f816200045f565b92915050565b600082601f8301126200023757600080fd5b81516200024e6200024882620003be565b62000390565b915080825260208301602083018583830111156200026b57600080fd5b6200027883828462000429565b50505092915050565b600081519050620002928162000479565b92915050565b600080600080600080600060e0888a031215620002b457600080fd5b6000620002c48a828b016200020e565b9750506020620002d78a828b016200020e565b965050604088015167ffffffffffffffff811115620002f557600080fd5b620003038a828b0162000225565b955050606088015167ffffffffffffffff8111156200032157600080fd5b6200032f8a828b0162000225565b9450506080620003428a828b0162000281565b93505060a0620003558a828b0162000281565b92505060c088015167ffffffffffffffff8111156200037357600080fd5b620003818a828b0162000225565b91505092959891949750929550565b6000604051905081810181811067ffffffffffffffff82111715620003b457600080fd5b8060405250919050565b600067ffffffffffffffff821115620003d657600080fd5b601f19601f8301169050602081019050919050565b6000620003f882620003ff565b9050919050565b600073ffffffffffffffffffffffffffffffffffffffff82169050919050565b6000819050919050565b60005b83811015620004495780820151818401526020810190506200042c565b8381111562000459576000848401525b50505050565b6200046a81620003eb565b81146200047657600080fd5b50565b62000484816200041f565b81146200049057600080fd5b50565b611d7e80620004a36000396000f3fe608060405234801561001057600080fd5b50600436106101165760003560e01c80637284e416116100a257806384d1d91e1161007157806384d1d91e146102e8578063c08d1fe514610318578063cc2ee19614610336578063e03a919114610354578063fc36e15b1461037257610116565b80637284e41614610270578063778384891461028e57806378e97925146102ac5780637da32949146102ca57610116565b80634717f97c116100e95780634717f97c146101b85780634a79d50c146101d65780634b67e07f146101f457806358f6480e1461021057806370b3ae231461024057610116565b806309eef43e1461011b5780631d74c14b1461014b5780631f12227714610169578063409e220514610187575b600080fd5b61013560048036036101309190810190611400565b6103a2565b6040516101429190611a36565b60405180910390f35b61015361046a565b60405161016091906119b5565b60405180910390f35b610171610490565b60405161017e91906119b5565b60405180910390f35b6101a1600480360361019c9190810190611551565b6104b5565b6040516101af929190611a95565b60405180910390f35b6101c0610616565b6040516101cd9190611a14565b60405180910390f35b6101de6106b2565b6040516101eb9190611a51565b60405180910390f35b61020e600480360361020991908101906114dc565b610750565b005b61022a60048036036102259190810190611400565b610931565b6040516102379190611a73565b60405180910390f35b61025a60048036036102559190810190611551565b610a59565b6040516102679190611b6c565b60405180910390f35b610278610a7a565b6040516102859190611a51565b60405180910390f35b610296610b18565b6040516102a391906119d0565b60405180910390f35b6102b4610bea565b6040516102c19190611b6c565b60405180910390f35b6102d2610bf0565b6040516102df91906119b5565b60405180910390f35b61030260048036036102fd9190810190611429565b610c16565b60405161030f9190611a36565b60405180910390f35b610320610d08565b60405161032d9190611b6c565b60405180910390f35b61033e610d0e565b60405161034b91906119f2565b60405180910390f35b61035c610eb1565b6040516103699190611a51565b60405180910390f35b61038c60048036036103879190810190611497565b610f4f565b6040516103999190611a36565b60405180910390f35b600080600b8054905014156103ba5760009050610465565b8173ffffffffffffffffffffffffffffffffffffffff16600b600a60008573ffffffffffffffffffffffffffffffffffffffff1673ffffffffffffffffffffffffffffffffffffffff168152602001908152602001600020600001548154811061042057fe5b9060005260206000200160009054906101000a900473ffffffffffffffffffffffffffffffffffffffff1673ffffffffffffffffffffffffffffffffffffffff161490505b919050565b600260009054906101000a900473ffffffffffffffffffffffffffffffffffffffff1681565b6000809054906101000a900473ffffffffffffffffffffffffffffffffffffffff1681565b600781815481106104c257fe5b9060005260206000209060020201600091509050806000018054600181600116156101000203166002900480601f01602080910402602001604051908101604052809291908181526020018280546001816001161561010002031660029004801561056e5780601f106105435761010080835404028352916020019161056e565b820191906000526020600020905b81548152906001019060200180831161055157829003601f168201915b505050505090806001018054600181600116156101000203166002900480601f01602080910402602001604051908101604052809291908181526020018280546001816001161561010002031660029004801561060c5780601f106105e15761010080835404028352916020019161060c565b820191906000526020600020905b8154815290600101906020018083116105ef57829003601f168201915b5050505050905082565b6060600654421161065c576040517f08c379a000000000000000000000000000000000000000000000000000000000815260040161065390611acc565b60405180910390fd5b60098054806020026020016040519081016040528092919081815260200182805480156106a857602002820191906000526020600020905b815481526020019060010190808311610694575b5050505050905090565b60038054600181600116156101000203166002900480601f0160208091040260200160405190810160405280929190818152602001828054600181600116156101000203166002900480156107485780601f1061071d57610100808354040283529160200191610748565b820191906000526020600020905b81548152906001019060200180831161072b57829003601f168201915b505050505081565b600160009054906101000a900473ffffffffffffffffffffffffffffffffffffffff1673ffffffffffffffffffffffffffffffffffffffff163373ffffffffffffffffffffffffffffffffffffffff16146107e0576040517f08c379a00000000000000000000000000000000000000000000000000000000081526004016107d790611aec565b60405180910390fd5b6005544210610824576040517f08c379a000000000000000000000000000000000000000000000000000000000815260040161081b90611b4c565b60405180910390fd5b6007604051806040016040528086868080601f016020809104026020016040519081016040528093929190818152602001838380828437600081840152601f19601f82011690508083019250505050505050815260200184848080601f016020809104026020016040519081016040528093929190818152602001838380828437600081840152601f19601f8201169050808301925050505050505081525090806001815401808255809150509060018203906000526020600020906002020160009091929091909150600082015181600001908051906020019061090a9291906111bb565b5060208201518160010190805190602001906109279291906111bb565b5050505050505050565b60606006544211610977576040517f08c379a000000000000000000000000000000000000000000000000000000000815260040161096e90611acc565b60405180910390fd5b600a60008373ffffffffffffffffffffffffffffffffffffffff1673ffffffffffffffffffffffffffffffffffffffff1681526020019081526020016000206001018054600181600116156101000203166002900480601f016020809104026020016040519081016040528092919081815260200182805460018160011615610100020316600290048015610a4d5780601f10610a2257610100808354040283529160200191610a4d565b820191906000526020600020905b815481529060010190602001808311610a3057829003601f168201915b50505050509050919050565b60098181548110610a6657fe5b906000526020600020016000915090505481565b60048054600181600116156101000203166002900480601f016020809104026020016040519081016040528092919081815260200182805460018160011615610100020316600290048015610b105780601f10610ae557610100808354040283529160200191610b10565b820191906000526020600020905b815481529060010190602001808311610af357829003601f168201915b505050505081565b60606006544211610b5e576040517f08c379a0000000000000000000000000000000000000000000000000000000008152600401610b5590611acc565b60405180910390fd5b600b805480602002602001604051908101604052809291908181526020018280548015610be057602002820191906000526020600020905b8160009054906101000a900473ffffffffffffffffffffffffffffffffffffffff1673ffffffffffffffffffffffffffffffffffffffff1681526020019060010190808311610b96575b5050505050905090565b60055481565b600160009054906101000a900473ffffffffffffffffffffffffffffffffffffffff1681565b6000600160009054906101000a900473ffffffffffffffffffffffffffffffffffffffff1673ffffffffffffffffffffffffffffffffffffffff163373ffffffffffffffffffffffffffffffffffffffff1614610ca8576040517f08c379a0000000000000000000000000000000000000000000000000000000008152600401610c9f90611aec565b60405180910390fd5b6006544211610cec576040517f08c379a0000000000000000000000000000000000000000000000000000000008152600401610ce390611acc565b60405180910390fd5b828260099190610cfd92919061123b565b506001905092915050565b60065481565b60606007805480602002602001604051908101604052809291908181526020016000905b82821015610ea85783829060005260206000209060020201604051806040016040529081600082018054600181600116156101000203166002900480601f016020809104026020016040519081016040528092919081815260200182805460018160011615610100020316600290048015610dee5780601f10610dc357610100808354040283529160200191610dee565b820191906000526020600020905b815481529060010190602001808311610dd157829003601f168201915b50505050508152602001600182018054600181600116156101000203166002900480601f016020809104026020016040519081016040528092919081815260200182805460018160011615610100020316600290048015610e905780601f10610e6557610100808354040283529160200191610e90565b820191906000526020600020905b815481529060010190602001808311610e7357829003601f168201915b50505050508152505081526020019060010190610d32565b50505050905090565b60088054600181600116156101000203166002900480601f016020809104026020016040519081016040528092919081815260200182805460018160011615610100020316600290048015610f475780601f10610f1c57610100808354040283529160200191610f47565b820191906000526020600020905b815481529060010190602001808311610f2a57829003601f168201915b505050505081565b600060055442118015610f63575060065442105b610fa2576040517f08c379a0000000000000000000000000000000000000000000000000000000008152600401610f9990611b2c565b60405180910390fd5b610fab33611102565b610fea576040517f08c379a0000000000000000000000000000000000000000000000000000000008152600401610fe190611b0c565b60405180910390fd5b8282600a60003373ffffffffffffffffffffffffffffffffffffffff1673ffffffffffffffffffffffffffffffffffffffff168152602001908152602001600020600101919061103b929190611288565b50611045336103a2565b6110f8576001600b3390806001815401808255809150509060018203906000526020600020016000909192909190916101000a81548173ffffffffffffffffffffffffffffffffffffffff021916908373ffffffffffffffffffffffffffffffffffffffff16021790555003600a60003373ffffffffffffffffffffffffffffffffffffffff1673ffffffffffffffffffffffffffffffffffffffff168152602001908152602001600020600001819055505b6001905092915050565b600080600260009054906101000a900473ffffffffffffffffffffffffffffffffffffffff1690508073ffffffffffffffffffffffffffffffffffffffff1663a7771ee3846040518263ffffffff1660e01b815260040161116391906119b5565b60206040518083038186803b15801561117b57600080fd5b505afa15801561118f573d6000803e3d6000fd5b505050506040513d601f19601f820116820180604052506111b3919081019061146e565b915050919050565b828054600181600116156101000203166002900490600052602060002090601f016020900481019282601f106111fc57805160ff191683800117855561122a565b8280016001018555821561122a579182015b8281111561122957825182559160200191906001019061120e565b5b5090506112379190611308565b5090565b828054828255906000526020600020908101928215611277579160200282015b8281111561127657823582559160200191906001019061125b565b5b5090506112849190611308565b5090565b828054600181600116156101000203166002900490600052602060002090601f016020900481019282601f106112c957803560ff19168380011785556112f7565b828001600101855582156112f7579182015b828111156112f65782358255916020019190600101906112db565b5b5090506113049190611308565b5090565b61132a91905b8082111561132657600081600090555060010161130e565b5090565b90565b60008135905061133c81611cf6565b92915050565b60008083601f84011261135457600080fd5b8235905067ffffffffffffffff81111561136d57600080fd5b60208301915083602082028301111561138557600080fd5b9250929050565b60008151905061139b81611d0d565b92915050565b60008083601f8401126113b357600080fd5b8235905067ffffffffffffffff8111156113cc57600080fd5b6020830191508360018202830111156113e457600080fd5b9250929050565b6000813590506113fa81611d24565b92915050565b60006020828403121561141257600080fd5b60006114208482850161132d565b91505092915050565b6000806020838503121561143c57600080fd5b600083013567ffffffffffffffff81111561145657600080fd5b61146285828601611342565b92509250509250929050565b60006020828403121561148057600080fd5b600061148e8482850161138c565b91505092915050565b600080602083850312156114aa57600080fd5b600083013567ffffffffffffffff8111156114c457600080fd5b6114d0858286016113a1565b92509250509250929050565b600080600080604085870312156114f257600080fd5b600085013567ffffffffffffffff81111561150c57600080fd5b611518878288016113a1565b9450945050602085013567ffffffffffffffff81111561153757600080fd5b611543878288016113a1565b925092505092959194509250565b60006020828403121561156357600080fd5b6000611571848285016113eb565b91505092915050565b600061158683836115be565b60208301905092915050565b600061159e8383611953565b905092915050565b60006115b28383611997565b60208301905092915050565b6115c781611c6a565b82525050565b6115d681611c6a565b82525050565b60006115e782611bb7565b6115f18185611c15565b93506115fc83611b87565b8060005b8381101561162d578151611614888261157a565b975061161f83611bee565b925050600181019050611600565b5085935050505092915050565b600061164582611bc2565b61164f8185611c26565b93508360208202850161166185611b97565b8060005b8581101561169d578484038952815161167e8582611592565b945061168983611bfb565b925060208a01995050600181019050611665565b50829750879550505050505092915050565b60006116ba82611bcd565b6116c48185611c37565b93506116cf83611ba7565b8060005b838110156117005781516116e788826115a6565b97506116f283611c08565b9250506001810190506116d3565b5085935050505092915050565b61171681611c7c565b82525050565b600061172782611be3565b6117318185611c59565b9350611741818560208601611cb2565b61174a81611ce5565b840191505092915050565b600061176082611bd8565b61176a8185611c48565b935061177a818560208601611cb2565b61178381611ce5565b840191505092915050565b600061179982611bd8565b6117a38185611c59565b93506117b3818560208601611cb2565b6117bc81611ce5565b840191505092915050565b60006117d4601b83611c59565b91507f6f6e6c7920616c6c6f77656420616674657220656c656374696f6e00000000006000830152602082019050919050565b6000611814603983611c59565b91507f6f6e6c792074686520656c656374696f6e206d616e6167657220697320616c6c60008301527f6f77656420746f2075736520746869732066756e6374696f6e000000000000006020830152604082019050919050565b600061187a602883611c59565b91507f6d6573736167652073656e646572206973206e6f74206120726567697374657260008301527f656420766f7465720000000000000000000000000000000000000000000000006020830152604082019050919050565b60006118e0601c83611c59565b91507f6f6e6c7920616c6c6f77656420647572696e6720656c656374696f6e000000006000830152602082019050919050565b6000611920601c83611c59565b91507f6f6e6c7920616c6c6f776564206265666f726520656c656374696f6e000000006000830152602082019050919050565b600060408301600083015184820360008601526119708282611755565b9150506020830151848203602086015261198a8282611755565b9150508091505092915050565b6119a081611ca8565b82525050565b6119af81611ca8565b82525050565b60006020820190506119ca60008301846115cd565b92915050565b600060208201905081810360008301526119ea81846115dc565b905092915050565b60006020820190508181036000830152611a0c818461163a565b905092915050565b60006020820190508181036000830152611a2e81846116af565b905092915050565b6000602082019050611a4b600083018461170d565b92915050565b60006020820190508181036000830152611a6b818461178e565b905092915050565b60006020820190508181036000830152611a8d818461171c565b905092915050565b60006040820190508181036000830152611aaf818561178e565b90508181036020830152611ac3818461178e565b90509392505050565b60006020820190508181036000830152611ae5816117c7565b9050919050565b60006020820190508181036000830152611b0581611807565b9050919050565b60006020820190508181036000830152611b258161186d565b9050919050565b60006020820190508181036000830152611b45816118d3565b9050919050565b60006020820190508181036000830152611b6581611913565b9050919050565b6000602082019050611b8160008301846119a6565b92915050565b6000819050602082019050919050565b6000819050602082019050919050565b6000819050602082019050919050565b600081519050919050565b600081519050919050565b600081519050919050565b600081519050919050565b600081519050919050565b6000602082019050919050565b6000602082019050919050565b6000602082019050919050565b600082825260208201905092915050565b600082825260208201905092915050565b600082825260208201905092915050565b600082825260208201905092915050565b600082825260208201905092915050565b6000611c7582611c88565b9050919050565b60008115159050919050565b600073ffffffffffffffffffffffffffffffffffffffff82169050919050565b6000819050919050565b60005b83811015611cd0578082015181840152602081019050611cb5565b83811115611cdf576000848401525b50505050565b6000601f19601f8301169050919050565b611cff81611c6a565b8114611d0a57600080fd5b50565b611d1681611c7c565b8114611d2157600080fd5b50565b611d2d81611ca8565b8114611d3857600080fd5b5056fea365627a7a72315820069cc66aa8dc5607b86525dc8d32e4014d877384e037995e72410d18511d4cce6c6578706572696d656e74616cf564736f6c63430005100040a365627a7a72315820549cd1ae3feef233bacae9f725484bc938ee897d7e959e4a81f5d66a2f3a4b216c6578706572696d656e74616cf564736f6c63430005100040",
  "source": "pragma solidity >=0.4.26;\npragma experimental ABIEncoderV2; // needed to be able to pass string arrays and structs into functions\n\ncontract ElectionFactory {\n    address public factoryManager;\n    address public registrationAuthority;\n    address[] public deployedElections;\n\n    /// @dev initializes the contract and sets the contract manager to be the deployer of the contract\n    constructor(address _registrationAuthority) public {\n        factoryManager = msg.sender;\n        registrationAuthority = _registrationAuthority;\n    }\n\n    /// @dev only the factory manager is allowed functions marked with this\n    /// @notice functions with this modifier can only be used by the administrator\n    modifier restricted() {\n        require(msg.sender == factoryManager, \"only the factory manager is allowed to use this function\");\n        _;\n    }\n\n    /// @dev use this to deploy new Election contracts and reset the temporary options lists afterwards\n    /// @param _title specifies the name of the election (e.g. national elections)\n    /// @param _description specifies the description of the election\n    /// @param _startTime specifies the beginning of the election (since Unix Epoch in seconds)\n    /// @param _timeLimit specifies a time limit until when the election is open (since Unix Epoch in seconds)\n    function createElection(\n        string memory _title,\n        string memory _description,\n        uint _startTime,\n        uint _timeLimit,\n        string memory _encryptionKey)\n        public restricted {\n        deployedElections.push(\n            address(\n                new Election(\n                    factoryManager,\n                    registrationAuthority,\n                    _title,\n                    _description,\n                    _startTime,\n                    _timeLimit,\n                    _encryptionKey\n                )\n            )\n        );\n    }\n\n    /// @dev use this to return a list of addresses of all deployed Election contracts\n    /// @return a list of addresses of all deployed Election contracts\n    function getDeployedElections() public view returns(address[] memory) {\n        return deployedElections;\n    }\n}\n\n/// @title Election\n/// @author Johannes Mols (02.09.2019)\n/// @dev This is the actual election contract where users can vote\n/// @dev Security by design: homomorphic encryption, (zero-knowledge proofs), allowing voters to vote multiple times to avoid coercion (new vote invalidates old one)\ncontract Election {\n    struct Option {\n        string title;\n        string description;\n    }\n\n    struct Vote {\n        uint listPointer; // index in the list of addresses that voted\n        string encryptedVote; // homomorphically encrypted 0 or 1 for each option. 1 being a vote. Max 1 per voter.\n    }\n\n    address public electionFactory;\n    address public electionManager;\n    address public registrationAuthority;\n    string public title;\n    string public description;\n    uint public startTime;\n    uint public timeLimit;\n    Option[] public options;\n    string public encryptionKey;\n    uint[] public publishedResult;\n\n    mapping(address => Vote) private votes; // records encrypted vote for each address\n    address[] private votesReferenceList; // keeps a list of all addresses that voted\n\n    /// @dev initializes the contract with all required parameters and sets the manager of the contract\n    constructor(\n        address _manager,\n        address _registrationAuthority,\n        string memory _title,\n        string memory _description,\n        uint _startTime,\n        uint _timeLimit,\n        string memory _encryptionKey\n    ) public {\n        electionFactory = msg.sender;\n        registrationAuthority = _registrationAuthority;\n        electionManager = _manager;\n        title = _title;\n        description = _description;\n        startTime = _startTime;\n        timeLimit = _timeLimit;\n        encryptionKey = _encryptionKey;\n    }\n\n    /// @dev only the factory manager is allowed functions marked with this\n    /// @notice functions with this modifier can only be used by the administrator\n    modifier manager() {\n        require(msg.sender == electionManager, \"only the election manager is allowed to use this function\");\n        _;\n    }\n\n    modifier factory() {\n        require(msg.sender == electionFactory, \"only the election factory is allowed to use this function\");\n        _;\n    }\n\n    modifier beforeElection() {\n        require(now < startTime, \"only allowed before election\");\n        _;\n    }\n\n    modifier duringElection() {\n        require(now > startTime && now < timeLimit, \"only allowed during election\");\n        _;\n    }\n\n    modifier afterElection() {\n        require(now > timeLimit, \"only allowed after election\");\n        _;\n    }\n\n    /// @dev add an option to the ballot before the election starts\n    function addOption(string calldata _title, string calldata _description) external manager beforeElection {\n        options.push(Option({ title: _title, description: _description }));\n    }\n\n    /// @dev get all available options on the ballot\n    function getOptions() external view returns(Option[] memory) {\n        return options;\n    }\n\n    /// @dev returns a list of addresses that participated in the election\n    function getListOfAddressesThatVoted() external view afterElection returns(address[] memory voterList) {\n        return votesReferenceList;\n    }\n\n    /// @dev get the encrypted vote of a voter, only allowed after the election is over\n    function getEncryptedVoteOfVoter(address _address) external view afterElection returns(string memory encryptedVote) {\n        return votes[_address].encryptedVote;\n    }\n\n    /// @dev publish the decrypted version of the sum of all votes for each candidate\n    function publishResults(uint[] calldata results) external manager afterElection returns(bool success) {\n        publishedResult = results;\n        return true;\n    }\n\n    /// @dev returns the list of final votes for each candidate\n    function getResults() external view afterElection returns(uint[] memory results) {\n        return publishedResult;\n    }\n\n    /// @dev this is used to cast a vote. the vote is homomorphically encrypted\n    /// @dev allows users to vote multiple times, invalidating the previous vote\n    function vote(string calldata _encryptedVote) external duringElection returns(bool success) {\n        require(isRegisteredVoter(msg.sender), \"message sender is not a registered voter\");\n\n        votes[msg.sender].encryptedVote = _encryptedVote;\n\n        if(!hasVoted(msg.sender)) {\n            votes[msg.sender].listPointer = votesReferenceList.push(msg.sender) - 1;\n        }\n\n        return true;\n    }\n\n    /// @dev find out whether a voter has submitted their vote\n    function hasVoted(address _address) public view returns(bool) {\n        if(votesReferenceList.length == 0) return false;\n        return (votesReferenceList[votes[_address].listPointer] == _address);\n    }\n\n    /// @dev check the registration authority whether the address is registered as a valid voter\n    function isRegisteredVoter(address _address) private view returns(bool) {\n        RegistrationAuthority ra = RegistrationAuthority(registrationAuthority);\n        return ra.isVoter(_address);\n    }\n}\n\n/// @title The Registration Authority takes care of keeping a record of eligible voters\n/// @author Johannes Mols (03.09.2019)\n/// @dev use this to register and unregister voters\ncontract RegistrationAuthority {\n    struct Voter {\n        uint listPointer;\n        bool isVoter;\n        address ethAddress;\n        string name;\n        string streetAddress;\n        string birthdate;\n        string personId;\n    }\n\n    address public manager;\n\n    mapping(address => Voter) private voters;\n    address[] private votersReferenceList;\n\n    /// @dev initializes the contract and sets the contract manager to be the deployer of the contract\n    constructor() public {\n        manager = msg.sender;\n    }\n\n    /// @dev only the factory manager is allowed functions marked with this\n    /// @notice functions with this modifier can only be used by the administrator\n    modifier restricted() {\n        require(msg.sender == manager, \"only the contract manager is allowed to use this function\");\n        _;\n    }\n\n    /// @dev use this to register or update a voter\n    function registerOrUpdateVoter(\n        address _voter,\n        string calldata _name,\n        string calldata _streetAddress,\n        string calldata _birthdate,\n        string calldata _personId) external restricted {\n\n        if (voters[_voter].isVoter == false) {\n            voters[_voter].listPointer = votersReferenceList.push(_voter) - 1;\n            voters[_voter].isVoter = true;\n            voters[_voter].ethAddress = _voter;\n        }\n\n        voters[_voter].name = _name;\n        voters[_voter].streetAddress = _streetAddress;\n        voters[_voter].birthdate = _birthdate;\n        voters[_voter].personId = _personId;\n    }\n\n    /// @dev use this to unregister a voter\n    function unregisterVoter(address _voter) external restricted {\n        require(voters[_voter].isVoter == true, \"this address is not registered as a voter\");\n\n        // Delete the desired entry by moving the last item in the array to the row to delete, and then shorten the array by one\n        voters[_voter].isVoter = false;\n        uint rowToDelete = voters[_voter].listPointer;\n        address keyToMove = votersReferenceList[votersReferenceList.length - 1];\n        votersReferenceList[rowToDelete] = keyToMove;\n        voters[keyToMove].listPointer = rowToDelete;\n        votersReferenceList.length--;\n    }\n\n    /// @dev use this to check whether an address belongs to a valid voter\n    function isVoter(address _voter) public view returns(bool) {\n        if (votersReferenceList.length == 0) return false;\n        return (voters[_voter].isVoter);\n    }\n\n    /// @dev use this this to get the number of registered voters\n    function getNumberOfVoters() public view returns(uint) {\n        return votersReferenceList.length;\n    }\n\n    /// @dev get a list of registered voters\n    function getListOfVoters() public view returns(address[] memory) {\n        return votersReferenceList;\n    }\n\n    /// @dev get details of a specific voter\n    function getVoterDetails(address _voter) public view returns(Voter memory) {\n        return voters[_voter];\n    }\n}\n",
  "sourcePath": "/home/faris/election/contracts/Election.sol",
  "compiler": {
    "name": "solc",
    "version": "0.5.16+commit.9c3226ce.Emscripten.clang"
  },
  "schemaVersion": "3.2.0",
  "updatedAt": "2020-06-09T09:35:59.483Z",
  "networkType": "ethereum",
  "devdoc": {
    "methods": {
      "constructor": {
        "details": "initializes the contract and sets the contract manager to be the deployer of the contract"
      },
      "createElection(string,string,uint256,uint256,string)": {
        "details": "use this to deploy new Election contracts and reset the temporary options lists afterwards",
        "params": {
          "_description": "specifies the description of the election",
          "_startTime": "specifies the beginning of the election (since Unix Epoch in seconds)",
          "_timeLimit": "specifies a time limit until when the election is open (since Unix Epoch in seconds)",
          "_title": "specifies the name of the election (e.g. national elections)"
        }
      },
      "getDeployedElections()": {
        "details": "use this to return a list of addresses of all deployed Election contracts",
        "return": "a list of addresses of all deployed Election contracts"
      }
    }
  },
  "userdoc": {
    "methods": {}
  }
}