{
  "contractName": "Election",
  "abi": [
    {
      "inputs": [
        {
          "internalType": "address",
          "name": "_registrationAuthority",
          "type": "address"
        },
        {
          "internalType": "string",
          "name": "_title",
          "type": "string"
        },
        {
          "internalType": "string",
          "name": "_description",
          "type": "string"
        },
        {
          "internalType": "uint256",
          "name": "_startTime",
          "type": "uint256"
        },
        {
          "internalType": "uint256",
          "name": "_endTime",
          "type": "uint256"
        },
        {
          "internalType": "string",
          "name": "_encryptionKey",
          "type": "string"
        }
      ],
      "payable": false,
      "stateMutability": "nonpayable",
      "type": "constructor"
    },
    {
      "constant": true,
      "inputs": [
        {
          "internalType": "uint256",
          "name": "",
          "type": "uint256"
        }
      ],
      "name": "ballotList",
      "outputs": [
        {
          "internalType": "string",
          "name": "name",
          "type": "string"
        },
        {
          "internalType": "string",
          "name": "party",
          "type": "string"
        }
      ],
      "payable": false,
      "stateMutability": "view",
      "type": "function"
    },
    {
      "constant": true,
      "inputs": [],
      "name": "description",
      "outputs": [
        {
          "internalType": "string",
          "name": "",
          "type": "string"
        }
      ],
      "payable": false,
      "stateMutability": "view",
      "type": "function"
    },
    {
      "constant": true,
      "inputs": [],
      "name": "encryptionKey",
      "outputs": [
        {
          "internalType": "string",
          "name": "",
          "type": "string"
        }
      ],
      "payable": false,
      "stateMutability": "view",
      "type": "function"
    },
    {
      "constant": true,
      "inputs": [],
      "name": "endTime",
      "outputs": [
        {
          "internalType": "uint256",
          "name": "",
          "type": "uint256"
        }
      ],
      "payable": false,
      "stateMutability": "view",
      "type": "function"
    },
    {
      "constant": true,
      "inputs": [
        {
          "internalType": "uint256",
          "name": "",
          "type": "uint256"
        }
      ],
      "name": "publishedResult",
      "outputs": [
        {
          "internalType": "uint256",
          "name": "",
          "type": "uint256"
        }
      ],
      "payable": false,
      "stateMutability": "view",
      "type": "function"
    },
    {
      "constant": true,
      "inputs": [],
      "name": "registrationAuthority",
      "outputs": [
        {
          "internalType": "address",
          "name": "",
          "type": "address"
        }
      ],
      "payable": false,
      "stateMutability": "view",
      "type": "function"
    },
    {
      "constant": true,
      "inputs": [],
      "name": "startTime",
      "outputs": [
        {
          "internalType": "uint256",
          "name": "",
          "type": "uint256"
        }
      ],
      "payable": false,
      "stateMutability": "view",
      "type": "function"
    },
    {
      "constant": true,
      "inputs": [],
      "name": "title",
      "outputs": [
        {
          "internalType": "string",
          "name": "",
          "type": "string"
        }
      ],
      "payable": false,
      "stateMutability": "view",
      "type": "function"
    },
    {
      "constant": false,
      "inputs": [
        {
          "internalType": "address",
          "name": "_voter",
          "type": "address"
        }
      ],
      "name": "registerVoter",
      "outputs": [],
      "payable": false,
      "stateMutability": "nonpayable",
      "type": "function"
    },
    {
      "constant": false,
      "inputs": [
        {
          "internalType": "address",
          "name": "_voter",
          "type": "address"
        }
      ],
      "name": "unregisterVoter",
      "outputs": [],
      "payable": false,
      "stateMutability": "nonpayable",
      "type": "function"
    },
    {
      "constant": true,
      "inputs": [
        {
          "internalType": "address",
          "name": "_voter",
          "type": "address"
        }
      ],
      "name": "isRegisteredVoter",
      "outputs": [
        {
          "internalType": "bool",
          "name": "",
          "type": "bool"
        }
      ],
      "payable": false,
      "stateMutability": "view",
      "type": "function"
    },
    {
      "constant": true,
      "inputs": [],
      "name": "getNumberOfVoters",
      "outputs": [
        {
          "internalType": "uint256",
          "name": "",
          "type": "uint256"
        }
      ],
      "payable": false,
      "stateMutability": "view",
      "type": "function"
    },
    {
      "constant": true,
      "inputs": [],
      "name": "getListOfVoters",
      "outputs": [
        {
          "internalType": "address[]",
          "name": "x",
          "type": "address[]"
        }
      ],
      "payable": false,
      "stateMutability": "view",
      "type": "function"
    },
    {
      "constant": true,
      "inputs": [
        {
          "internalType": "address",
          "name": "_voter",
          "type": "address"
        }
      ],
      "name": "getVoterDetails",
      "outputs": [
        {
          "components": [
            {
              "internalType": "uint256",
              "name": "listPointer",
              "type": "uint256"
            },
            {
              "internalType": "bool",
              "name": "isVoter",
              "type": "bool"
            },
            {
              "internalType": "address",
              "name": "ethAddress",
              "type": "address"
            }
          ],
          "internalType": "struct Election.Voter",
          "name": "",
          "type": "tuple"
        }
      ],
      "payable": false,
      "stateMutability": "view",
      "type": "function"
    },
    {
      "constant": false,
      "inputs": [
        {
          "internalType": "string",
          "name": "_name",
          "type": "string"
        },
        {
          "internalType": "string",
          "name": "_party",
          "type": "string"
        }
      ],
      "name": "addCandidate",
      "outputs": [],
      "payable": false,
      "stateMutability": "nonpayable",
      "type": "function"
    },
    {
      "constant": true,
      "inputs": [],
      "name": "getBallot",
      "outputs": [
        {
          "components": [
            {
              "internalType": "string",
              "name": "name",
              "type": "string"
            },
            {
              "internalType": "string",
              "name": "party",
              "type": "string"
            }
          ],
          "internalType": "struct Election.Ballot[]",
          "name": "x",
          "type": "tuple[]"
        }
      ],
      "payable": false,
      "stateMutability": "view",
      "type": "function"
    },
    {
      "constant": true,
      "inputs": [],
      "name": "getencryptedVoteList",
      "outputs": [
        {
          "internalType": "string[]",
          "name": "success",
          "type": "string[]"
        }
      ],
      "payable": false,
      "stateMutability": "view",
      "type": "function"
    },
    {
      "constant": false,
      "inputs": [
        {
          "internalType": "uint256[]",
          "name": "results",
          "type": "uint256[]"
        }
      ],
      "name": "publishResults",
      "outputs": [
        {
          "internalType": "bool",
          "name": "success",
          "type": "bool"
        }
      ],
      "payable": false,
      "stateMutability": "nonpayable",
      "type": "function"
    },
    {
      "constant": true,
      "inputs": [],
      "name": "getResults",
      "outputs": [
        {
          "internalType": "uint256[]",
          "name": "results",
          "type": "uint256[]"
        }
      ],
      "payable": false,
      "stateMutability": "view",
      "type": "function"
    },
    {
      "constant": false,
      "inputs": [
        {
          "internalType": "string",
          "name": "_encryptedVote",
          "type": "string"
        }
      ],
      "name": "vote",
      "outputs": [
        {
          "internalType": "bool",
          "name": "success",
          "type": "bool"
        }
      ],
      "payable": false,
      "stateMutability": "nonpayable",
      "type": "function"
    },
    {
      "constant": true,
      "inputs": [
        {
          "internalType": "address",
          "name": "_address",
          "type": "address"
        }
      ],
      "name": "hasVoted",
      "outputs": [
        {
          "internalType": "bool",
          "name": "",
          "type": "bool"
        }
      ],
      "payable": false,
      "stateMutability": "view",
      "type": "function"
    }
  ],
  "bytecode": "0x60806040523480156200001157600080fd5b506040516200290338038062002903833981810160405262000037919081019062000216565b85600260006101000a81548173ffffffffffffffffffffffffffffffffffffffff021916908373ffffffffffffffffffffffffffffffffffffffff160217905550846003908051906020019062000090929190620000dd565b508360049080519060200190620000a9929190620000dd565b5082600581905550816006819055508060089080519060200190620000d0929190620000dd565b50505050505050620003fa565b828054600181600116156101000203166002900490600052602060002090601f016020900481019282601f106200012057805160ff191683800117855562000151565b8280016001018555821562000151579182015b828111156200015057825182559160200191906001019062000133565b5b50905062000160919062000164565b5090565b6200018991905b80821115620001855760008160009055506001016200016b565b5090565b90565b6000815190506200019d81620003c6565b92915050565b600082601f830112620001b557600080fd5b8151620001cc620001c68262000325565b620002f7565b91508082526020830160208301858383011115620001e957600080fd5b620001f683828462000390565b50505092915050565b6000815190506200021081620003e0565b92915050565b60008060008060008060c087890312156200023057600080fd5b60006200024089828a016200018c565b965050602087015167ffffffffffffffff8111156200025e57600080fd5b6200026c89828a01620001a3565b955050604087015167ffffffffffffffff8111156200028a57600080fd5b6200029889828a01620001a3565b9450506060620002ab89828a01620001ff565b9350506080620002be89828a01620001ff565b92505060a087015167ffffffffffffffff811115620002dc57600080fd5b620002ea89828a01620001a3565b9150509295509295509295565b6000604051905081810181811067ffffffffffffffff821117156200031b57600080fd5b8060405250919050565b600067ffffffffffffffff8211156200033d57600080fd5b601f19601f8301169050602081019050919050565b60006200035f8262000366565b9050919050565b600073ffffffffffffffffffffffffffffffffffffffff82169050919050565b6000819050919050565b60005b83811015620003b057808201518184015260208101905062000393565b83811115620003c0576000848401525b50505050565b620003d18162000352565b8114620003dd57600080fd5b50565b620003eb8162000386565b8114620003f757600080fd5b50565b6124f9806200040a6000396000f3fe608060405234801561001057600080fd5b50600436106101375760003560e01c806378e97925116100b85780639baec8b91161007c5780639baec8b9146103415780639bd05a0d1461035f578063ba71bef01461037d578063da36cffe146103ad578063e03a9191146103dd578063fc36e15b146103fb57610137565b806378e979251461029b5780637ed17751146102b957806384865b66146102d557806384d1d91e146102f3578063867d4dbb1461032357610137565b80634404d1ed116100ff5780634404d1ed146101e05780634717f97c146102115780634a79d50c1461022f57806370b3ae231461024d5780637284e4161461027d57610137565b806309eef43e1461013c5780631d74c14b1461016c57806326541b561461018a5780633197cbb6146101a657806338db6dd3146101c4575b600080fd5b610156600480360361015191908101906119eb565b61042b565b6040516101639190612161565b60405180910390f35b610174610481565b60405161018191906120be565b60405180910390f35b6101a4600480360361019f9190810190611a9e565b6104a7565b005b6101ae610688565b6040516101bb91906122d0565b60405180910390f35b6101de60048036036101d991908101906119eb565b61068e565b005b6101fa60048036036101f59190810190611b13565b6108eb565b60405161020892919061219e565b60405180910390f35b610219610a4c565b604051610226919061213f565b60405180910390f35b610237610ae8565b604051610244919061217c565b60405180910390f35b61026760048036036102629190810190611b13565b610b86565b60405161027491906122d0565b60405180910390f35b610285610ba7565b604051610292919061217c565b60405180910390f35b6102a3610c45565b6040516102b091906122d0565b60405180910390f35b6102d360048036036102ce91908101906119eb565b610c4b565b005b6102dd610f4d565b6040516102ea91906122d0565b60405180910390f35b61030d60048036036103089190810190611a14565b610f5a565b60405161031a9190612161565b60405180910390f35b61032b61104c565b60405161033891906120fb565b60405180910390f35b610349611179565b604051610356919061211d565b60405180910390f35b61036761131c565b60405161037491906120d9565b60405180910390f35b610397600480360361039291908101906119eb565b6113aa565b6040516103a491906122b5565b60405180910390f35b6103c760048036036103c291908101906119eb565b61147d565b6040516103d49190612161565b60405180910390f35b6103e56114ec565b6040516103f2919061217c565b60405180910390f35b61041560048036036104109190810190611a59565b61158a565b6040516104229190612161565b60405180910390f35b6000600a60008373ffffffffffffffffffffffffffffffffffffffff1673ffffffffffffffffffffffffffffffffffffffff16815260200190815260200160002060009054906101000a900460ff169050919050565b600260009054906101000a900473ffffffffffffffffffffffffffffffffffffffff1681565b600260009054906101000a900473ffffffffffffffffffffffffffffffffffffffff1673ffffffffffffffffffffffffffffffffffffffff163373ffffffffffffffffffffffffffffffffffffffff1614610537576040517f08c379a000000000000000000000000000000000000000000000000000000000815260040161052e90612235565b60405180910390fd5b600554421061057b576040517f08c379a000000000000000000000000000000000000000000000000000000000815260040161057290612295565b60405180910390fd5b6007604051806040016040528086868080601f016020809104026020016040519081016040528093929190818152602001838380828437600081840152601f19601f82011690508083019250505050505050815260200184848080601f016020809104026020016040519081016040528093929190818152602001838380828437600081840152601f19601f82011690508083019250505050505050815250908060018154018082558091505090600182039060005260206000209060020201600090919290919091506000820151816000019080519060200190610661929190611756565b50602082015181600101908051906020019061067e929190611756565b5050505050505050565b60065481565b600260009054906101000a900473ffffffffffffffffffffffffffffffffffffffff1673ffffffffffffffffffffffffffffffffffffffff163373ffffffffffffffffffffffffffffffffffffffff161461071e576040517f08c379a000000000000000000000000000000000000000000000000000000000815260040161071590612235565b60405180910390fd5b6005544210610762576040517f08c379a000000000000000000000000000000000000000000000000000000000815260040161075990612295565b60405180910390fd5b6001808290806001815401808255809150509060018203906000526020600020016000909192909190916101000a81548173ffffffffffffffffffffffffffffffffffffffff021916908373ffffffffffffffffffffffffffffffffffffffff160217905550036000808373ffffffffffffffffffffffffffffffffffffffff1673ffffffffffffffffffffffffffffffffffffffff1681526020019081526020016000206000018190555060016000808373ffffffffffffffffffffffffffffffffffffffff1673ffffffffffffffffffffffffffffffffffffffff16815260200190815260200160002060010160006101000a81548160ff021916908315150217905550806000808373ffffffffffffffffffffffffffffffffffffffff1673ffffffffffffffffffffffffffffffffffffffff16815260200190815260200160002060010160016101000a81548173ffffffffffffffffffffffffffffffffffffffff021916908373ffffffffffffffffffffffffffffffffffffffff16021790555050565b600781815481106108f857fe5b9060005260206000209060020201600091509050806000018054600181600116156101000203166002900480601f0160208091040260200160405190810160405280929190818152602001828054600181600116156101000203166002900480156109a45780601f10610979576101008083540402835291602001916109a4565b820191906000526020600020905b81548152906001019060200180831161098757829003601f168201915b505050505090806001018054600181600116156101000203166002900480601f016020809104026020016040519081016040528092919081815260200182805460018160011615610100020316600290048015610a425780601f10610a1757610100808354040283529160200191610a42565b820191906000526020600020905b815481529060010190602001808311610a2557829003601f168201915b5050505050905082565b60606006544211610a92576040517f08c379a0000000000000000000000000000000000000000000000000000000008152600401610a89906121d5565b60405180910390fd5b6009805480602002602001604051908101604052809291908181526020018280548015610ade57602002820191906000526020600020905b815481526020019060010190808311610aca575b5050505050905090565b60038054600181600116156101000203166002900480601f016020809104026020016040519081016040528092919081815260200182805460018160011615610100020316600290048015610b7e5780601f10610b5357610100808354040283529160200191610b7e565b820191906000526020600020905b815481529060010190602001808311610b6157829003601f168201915b505050505081565b60098181548110610b9357fe5b906000526020600020016000915090505481565b60048054600181600116156101000203166002900480601f016020809104026020016040519081016040528092919081815260200182805460018160011615610100020316600290048015610c3d5780601f10610c1257610100808354040283529160200191610c3d565b820191906000526020600020905b815481529060010190602001808311610c2057829003601f168201915b505050505081565b60055481565b600260009054906101000a900473ffffffffffffffffffffffffffffffffffffffff1673ffffffffffffffffffffffffffffffffffffffff163373ffffffffffffffffffffffffffffffffffffffff1614610cdb576040517f08c379a0000000000000000000000000000000000000000000000000000000008152600401610cd290612235565b60405180910390fd5b6005544210610d1f576040517f08c379a0000000000000000000000000000000000000000000000000000000008152600401610d1690612295565b60405180910390fd5b600115156000808373ffffffffffffffffffffffffffffffffffffffff1673ffffffffffffffffffffffffffffffffffffffff16815260200190815260200160002060010160009054906101000a900460ff16151514610db4576040517f08c379a0000000000000000000000000000000000000000000000000000000008152600401610dab90612255565b60405180910390fd5b60008060008373ffffffffffffffffffffffffffffffffffffffff1673ffffffffffffffffffffffffffffffffffffffff16815260200190815260200160002060010160006101000a81548160ff02191690831515021790555060008060008373ffffffffffffffffffffffffffffffffffffffff1673ffffffffffffffffffffffffffffffffffffffff168152602001908152602001600020600001549050600060018080805490500381548110610e6957fe5b9060005260206000200160009054906101000a900473ffffffffffffffffffffffffffffffffffffffff1690508060018381548110610ea457fe5b9060005260206000200160006101000a81548173ffffffffffffffffffffffffffffffffffffffff021916908373ffffffffffffffffffffffffffffffffffffffff160217905550816000808373ffffffffffffffffffffffffffffffffffffffff1673ffffffffffffffffffffffffffffffffffffffff168152602001908152602001600020600001819055506001805480919060019003610f4791906117d6565b50505050565b6000600180549050905090565b6000600260009054906101000a900473ffffffffffffffffffffffffffffffffffffffff1673ffffffffffffffffffffffffffffffffffffffff163373ffffffffffffffffffffffffffffffffffffffff1614610fec576040517f08c379a0000000000000000000000000000000000000000000000000000000008152600401610fe390612235565b60405180910390fd5b6006544211611030576040517f08c379a0000000000000000000000000000000000000000000000000000000008152600401611027906121d5565b60405180910390fd5b828260099190611041929190611802565b506001905092915050565b60606006544211611092576040517f08c379a0000000000000000000000000000000000000000000000000000000008152600401611089906121d5565b60405180910390fd5b600b805480602002602001604051908101604052809291908181526020016000905b82821015611170578382906000526020600020018054600181600116156101000203166002900480601f01602080910402602001604051908101604052809291908181526020018280546001816001161561010002031660029004801561115c5780601f106111315761010080835404028352916020019161115c565b820191906000526020600020905b81548152906001019060200180831161113f57829003601f168201915b5050505050815260200190600101906110b4565b50505050905090565b60606007805480602002602001604051908101604052809291908181526020016000905b828210156113135783829060005260206000209060020201604051806040016040529081600082018054600181600116156101000203166002900480601f0160208091040260200160405190810160405280929190818152602001828054600181600116156101000203166002900480156112595780601f1061122e57610100808354040283529160200191611259565b820191906000526020600020905b81548152906001019060200180831161123c57829003601f168201915b50505050508152602001600182018054600181600116156101000203166002900480601f0160208091040260200160405190810160405280929190818152602001828054600181600116156101000203166002900480156112fb5780601f106112d0576101008083540402835291602001916112fb565b820191906000526020600020905b8154815290600101906020018083116112de57829003601f168201915b5050505050815250508152602001906001019061119d565b50505050905090565b606060018054806020026020016040519081016040528092919081815260200182805480156113a057602002820191906000526020600020905b8160009054906101000a900473ffffffffffffffffffffffffffffffffffffffff1673ffffffffffffffffffffffffffffffffffffffff1681526020019060010190808311611356575b5050505050905090565b6113b261184f565b6000808373ffffffffffffffffffffffffffffffffffffffff1673ffffffffffffffffffffffffffffffffffffffff168152602001908152602001600020604051806060016040529081600082015481526020016001820160009054906101000a900460ff161515151581526020016001820160019054906101000a900473ffffffffffffffffffffffffffffffffffffffff1673ffffffffffffffffffffffffffffffffffffffff1673ffffffffffffffffffffffffffffffffffffffff16815250509050919050565b600080600180549050141561149557600090506114e7565b6000808373ffffffffffffffffffffffffffffffffffffffff1673ffffffffffffffffffffffffffffffffffffffff16815260200190815260200160002060010160009054906101000a900460ff1690505b919050565b60088054600181600116156101000203166002900480601f0160208091040260200160405190810160405280929190818152602001828054600181600116156101000203166002900480156115825780601f1061155757610100808354040283529160200191611582565b820191906000526020600020905b81548152906001019060200180831161156557829003601f168201915b505050505081565b60006005544211801561159e575060065442105b6115dd576040517f08c379a00000000000000000000000000000000000000000000000000000000081526004016115d490612215565b60405180910390fd5b6115e63361147d565b611625576040517f08c379a000000000000000000000000000000000000000000000000000000000815260040161161c906121f5565b60405180910390fd5b600a60003373ffffffffffffffffffffffffffffffffffffffff1673ffffffffffffffffffffffffffffffffffffffff16815260200190815260200160002060009054906101000a900460ff16156116b2576040517f08c379a00000000000000000000000000000000000000000000000000000000081526004016116a990612275565b60405180910390fd5b600b8383909180600181540180825580915050906001820390600052602060002001600090919293909192939091929091925091906116f2929190611888565b50506001600a60003373ffffffffffffffffffffffffffffffffffffffff1673ffffffffffffffffffffffffffffffffffffffff16815260200190815260200160002060006101000a81548160ff0219169083151502179055506001905092915050565b828054600181600116156101000203166002900490600052602060002090601f016020900481019282601f1061179757805160ff19168380011785556117c5565b828001600101855582156117c5579182015b828111156117c45782518255916020019190600101906117a9565b5b5090506117d29190611908565b5090565b8154818355818111156117fd578183600052602060002091820191016117fc9190611908565b5b505050565b82805482825590600052602060002090810192821561183e579160200282015b8281111561183d578235825591602001919060010190611822565b5b50905061184b9190611908565b5090565b604051806060016040528060008152602001600015158152602001600073ffffffffffffffffffffffffffffffffffffffff1681525090565b828054600181600116156101000203166002900490600052602060002090601f016020900481019282601f106118c957803560ff19168380011785556118f7565b828001600101855582156118f7579182015b828111156118f65782358255916020019190600101906118db565b5b5090506119049190611908565b5090565b61192a91905b8082111561192657600081600090555060010161190e565b5090565b90565b60008135905061193c81612488565b92915050565b60008083601f84011261195457600080fd5b8235905067ffffffffffffffff81111561196d57600080fd5b60208301915083602082028301111561198557600080fd5b9250929050565b60008083601f84011261199e57600080fd5b8235905067ffffffffffffffff8111156119b757600080fd5b6020830191508360018202830111156119cf57600080fd5b9250929050565b6000813590506119e58161249f565b92915050565b6000602082840312156119fd57600080fd5b6000611a0b8482850161192d565b91505092915050565b60008060208385031215611a2757600080fd5b600083013567ffffffffffffffff811115611a4157600080fd5b611a4d85828601611942565b92509250509250929050565b60008060208385031215611a6c57600080fd5b600083013567ffffffffffffffff811115611a8657600080fd5b611a928582860161198c565b92509250509250929050565b60008060008060408587031215611ab457600080fd5b600085013567ffffffffffffffff811115611ace57600080fd5b611ada8782880161198c565b9450945050602085013567ffffffffffffffff811115611af957600080fd5b611b058782880161198c565b925092505092959194509250565b600060208284031215611b2557600080fd5b6000611b33848285016119d6565b91505092915050565b6000611b488383611b94565b60208301905092915050565b6000611b608383611d76565b905092915050565b6000611b74838361201a565b905092915050565b6000611b8883836120a0565b60208301905092915050565b611b9d816123fc565b82525050565b611bac816123fc565b82525050565b6000611bbd8261232b565b611bc78185612396565b9350611bd2836122eb565b8060005b83811015611c03578151611bea8882611b3c565b9750611bf583612362565b925050600181019050611bd6565b5085935050505092915050565b6000611c1b82612336565b611c2581856123a7565b935083602082028501611c37856122fb565b8060005b85811015611c735784840389528151611c548582611b54565b9450611c5f8361236f565b925060208a01995050600181019050611c3b565b50829750879550505050505092915050565b6000611c9082612341565b611c9a81856123b8565b935083602082028501611cac8561230b565b8060005b85811015611ce85784840389528151611cc98582611b68565b9450611cd48361237c565b925060208a01995050600181019050611cb0565b50829750879550505050505092915050565b6000611d058261234c565b611d0f81856123c9565b9350611d1a8361231b565b8060005b83811015611d4b578151611d328882611b7c565b9750611d3d83612389565b925050600181019050611d1e565b5085935050505092915050565b611d618161240e565b82525050565b611d708161240e565b82525050565b6000611d8182612357565b611d8b81856123da565b9350611d9b818560208601612444565b611da481612477565b840191505092915050565b6000611dba82612357565b611dc481856123eb565b9350611dd4818560208601612444565b611ddd81612477565b840191505092915050565b6000611df5601b836123eb565b91507f6f6e6c7920616c6c6f77656420616674657220656c656374696f6e00000000006000830152602082019050919050565b6000611e356028836123eb565b91507f6d6573736167652073656e646572206973206e6f74206120726567697374657260008301527f656420766f7465720000000000000000000000000000000000000000000000006020830152604082019050919050565b6000611e9b601c836123eb565b91507f6f6e6c7920616c6c6f77656420647572696e6720656c656374696f6e000000006000830152602082019050919050565b6000611edb603f836123eb565b91507f6f6e6c792074686520726567697374726174696f6e20617574686f726974792060008301527f697320616c6c6f77656420746f2075736520746869732066756e6374696f6e006020830152604082019050919050565b6000611f416029836123eb565b91507f746869732061646472657373206973206e6f742072656769737465726564206160008301527f73206120766f74657200000000000000000000000000000000000000000000006020830152604082019050919050565b6000611fa76016836123eb565b91507f6f6e6c79206f6e6520766f746520706f737369626c65000000000000000000006000830152602082019050919050565b6000611fe7601c836123eb565b91507f6f6e6c7920616c6c6f776564206265666f726520656c656374696f6e000000006000830152602082019050919050565b600060408301600083015184820360008601526120378282611d76565b915050602083015184820360208601526120518282611d76565b9150508091505092915050565b60608201600082015161207460008501826120a0565b5060208201516120876020850182611d58565b50604082015161209a6040850182611b94565b50505050565b6120a98161243a565b82525050565b6120b88161243a565b82525050565b60006020820190506120d36000830184611ba3565b92915050565b600060208201905081810360008301526120f38184611bb2565b905092915050565b600060208201905081810360008301526121158184611c10565b905092915050565b600060208201905081810360008301526121378184611c85565b905092915050565b600060208201905081810360008301526121598184611cfa565b905092915050565b60006020820190506121766000830184611d67565b92915050565b600060208201905081810360008301526121968184611daf565b905092915050565b600060408201905081810360008301526121b88185611daf565b905081810360208301526121cc8184611daf565b90509392505050565b600060208201905081810360008301526121ee81611de8565b9050919050565b6000602082019050818103600083015261220e81611e28565b9050919050565b6000602082019050818103600083015261222e81611e8e565b9050919050565b6000602082019050818103600083015261224e81611ece565b9050919050565b6000602082019050818103600083015261226e81611f34565b9050919050565b6000602082019050818103600083015261228e81611f9a565b9050919050565b600060208201905081810360008301526122ae81611fda565b9050919050565b60006060820190506122ca600083018461205e565b92915050565b60006020820190506122e560008301846120af565b92915050565b6000819050602082019050919050565b6000819050602082019050919050565b6000819050602082019050919050565b6000819050602082019050919050565b600081519050919050565b600081519050919050565b600081519050919050565b600081519050919050565b600081519050919050565b6000602082019050919050565b6000602082019050919050565b6000602082019050919050565b6000602082019050919050565b600082825260208201905092915050565b600082825260208201905092915050565b600082825260208201905092915050565b600082825260208201905092915050565b600082825260208201905092915050565b600082825260208201905092915050565b60006124078261241a565b9050919050565b60008115159050919050565b600073ffffffffffffffffffffffffffffffffffffffff82169050919050565b6000819050919050565b60005b83811015612462578082015181840152602081019050612447565b83811115612471576000848401525b50505050565b6000601f19601f8301169050919050565b612491816123fc565b811461249c57600080fd5b50565b6124a88161243a565b81146124b357600080fd5b5056fea365627a7a72315820df86156d2b97180ad8c0f4c4c3cbc38c6af3451d7dfde9980c53a070709d050f6c6578706572696d656e74616cf564736f6c63430005100040",
  "source": "pragma solidity ^0.5.16;\n\n\npragma experimental ABIEncoderV2; // needed to be able to pass string arrays and structs into functions\n\n/// @dev use this to register and unregister voters\ncontract RegistrationAuthority {\n\n    address public registrationAuthority;\n\n    address[] public deployedElections; // keeps a list of all deployed elections\n\n    /// @dev initializes the contract and sets the contract registration authority to be the deployer of the contract\n    constructor() public {\n        registrationAuthority = msg.sender;\n    }\n\n    /// @dev only the registration authority is allowed functions marked with this\n    /// @notice functions with this modifier can only be used by the administrator\n    modifier restricted() {\n        require(msg.sender == registrationAuthority, \"only the registration authority is allowed to use this function\");\n        _;\n    }\n\n    /*****Election related function******/\n    /// @dev use this to deploy new Election contracts and reset the temporary options lists afterwards\n    /// @param _title specifies the name of the election (e.g. national elections)\n    /// @param _description specifies the description of the election\n    /// @param _startTime specifies the beginning of the election (since Unix Epoch in seconds)\n    /// @param _endTime specifies a time limit until when the election is open (since Unix Epoch in seconds)\n    function createElection(\n        string memory _title,\n        string memory _description,\n        uint _startTime,\n        uint _endTime,\n        string memory _encryptionKey)\n        public restricted {\n        deployedElections.push(\n            address(\n                new Election(\n                    registrationAuthority,\n                    _title,\n                    _description,\n                    _startTime,\n                    _endTime,\n                    _encryptionKey\n                )\n            )\n        );\n    }\n\n    /// @dev use this to return a list of addresses of all deployed Election contracts\n    /// @return a list of addresses of all deployed Election contracts\n    function getDeployedElections() public view returns(address[] memory) {\n        return deployedElections;\n    }\n}\n\n/// @dev This is the actual election contract where users can vote\n/// @dev Security by design: secret sharing, allows voters one time voting\ncontract Election {\n\n    struct Voter {\n        uint listPointer;\n        bool isVoter;\n        address ethAddress;\n    }\n\n    mapping(address => Voter) private votersList;\n    address[] private votersReferenceList;\n\n    /*****Voter related function******/\n    /// @dev use this to register or update a voter\n    function registerVoter(address _voter) external restricted beforeElection {\n\n        //ONLY ONE TIME ADDRESS REGISTRATION POSSIBLE PER ELECTION\n        votersList[_voter].listPointer = votersReferenceList.push(_voter) - 1;\n        votersList[_voter].isVoter = true;\n        votersList[_voter].ethAddress = _voter;\n\n    }\n\n    /// @dev use this to unregister a voter\n    function unregisterVoter(address _voter) external restricted beforeElection{\n        require(votersList[_voter].isVoter == true, \"this address is not registered as a voter\");\n\n        // Delete the desired entry by moving the last item in the array to the row to delete, and then shorten the array by one\n        votersList[_voter].isVoter = false;\n        uint rowToDelete = votersList[_voter].listPointer;\n        address keyToMove = votersReferenceList[votersReferenceList.length - 1];\n        votersReferenceList[rowToDelete] = keyToMove;\n        votersList[keyToMove].listPointer = rowToDelete;\n        votersReferenceList.length--;\n    }\n\n    /// @dev use this to check whether an address belongs to a valid voter\n    function isRegisteredVoter(address _voter) public view returns(bool) {\n        if (votersReferenceList.length == 0) return false;\n        return (votersList[_voter].isVoter);\n    }\n\n    /// @dev use this this to get the number of registered voters\n    function getNumberOfVoters() public view returns(uint) {\n        return votersReferenceList.length;\n    }\n\n    /// @dev get a list of registered voters\n    function getListOfVoters() public view returns(address[] memory x) {\n        return votersReferenceList;\n    }\n\n    /// @dev get details of a specific voter\n    function getVoterDetails(address _voter) public view returns(Voter memory) {\n        return votersList[_voter];\n    }\n\n\n    /*****Election related function******/\n    struct Ballot {\n        string name;\n        string party;\n    }\n\n    address public registrationAuthority;\n    string public title;\n    string public description;\n    uint public startTime;\n    uint public endTime;\n    Ballot[] public ballotList;\n    string public encryptionKey;\n    uint[] public publishedResult;\n\n    mapping(address => bool) private votersCheckList; // records that the voter has voted\n    string[] private encryptedVoteList; // keeps a list of all encrypted votes\n\n    /// @dev initializes the contract with all required parameters\n    constructor(\n        address _registrationAuthority,\n        string memory _title,\n        string memory _description,\n        uint _startTime,\n        uint _endTime,\n        string memory _encryptionKey\n    ) public {\n        registrationAuthority=_registrationAuthority;\n        //registrationAuthorityContractAdd = msg.sender;\n        title = _title;\n        description = _description;\n        startTime = _startTime;\n        endTime = _endTime;\n        encryptionKey = _encryptionKey;\n    }\n\n    /// @dev only the registration authority is allowed functions marked with this\n    /// @notice functions with this modifier can only be used by the registration authority\n    modifier restricted() {\n        require(msg.sender == registrationAuthority, \"only the registration authority is allowed to use this function\");\n        _;\n    }\n\n    /// @dev functions marked with this can be called before the specified start time\n    modifier beforeElection() {\n        require(now < startTime, \"only allowed before election\");\n        _;\n    }\n\n    /// @dev functions marked with this can be called during the specified time frame\n    modifier duringElection() {\n        require(now > startTime && now < endTime, \"only allowed during election\");\n        _;\n    }\n\n    /// @dev functions marked with this can be called after the specified end time\n    modifier afterElection() {\n        require(now > endTime, \"only allowed after election\");\n        _;\n    }\n\n    /// @dev add an option to the ballot before the election starts\n    function addCandidate(string calldata _name, string calldata _party) external restricted beforeElection {\n        ballotList.push(Ballot({ name: _name, party: _party }));\n    }\n\n    /// @dev get all available options on the ballot\n    function getBallot() external view returns(Ballot[] memory x) {\n        return ballotList;\n    }\n\n\n\n    /// @dev get the list of encrypted votes of a voter, only allowed after the election is over\n    function getencryptedVoteList() external view afterElection returns(string[] memory success) {\n        return encryptedVoteList;\n    }\n    /// @dev publish the decrypted version of the sum of all votes for each candidate\n    function publishResults(uint[] calldata results) external restricted afterElection returns(bool success) {\n        publishedResult = results;\n        return true;\n    }\n\n    /// @dev returns the list of final votes for each candidate\n    function getResults() external view afterElection returns(uint[] memory results) {\n        return publishedResult;\n    }\n\n    /// @dev this is used to cast a vote. the vote is homomorphically encrypted\n    /// @dev allows users to vote multiple times, invalidating the previous vote\n    function vote(string calldata _encryptedVote) external duringElection returns(bool success) {\n        require(isRegisteredVoter(msg.sender), \"message sender is not a registered voter\");\n        require(!votersCheckList[msg.sender],\"only one vote possible\");\n        encryptedVoteList.push(_encryptedVote);\n        votersCheckList[msg.sender] = true;\n\n        return true;\n    }\n\n    /// @dev find out whether a voter has submitted their vote\n    function hasVoted(address _address) public view returns(bool) {\n        return votersCheckList[_address];\n    }\n\n}\n",
  "sourcePath": "/home/faris/NITCVote/contracts/Elections.sol",
  "compiler": {
    "name": "solc",
    "version": "0.5.16+commit.9c3226ce.Emscripten.clang"
  },
  "schemaVersion": "3.2.0",
  "updatedAt": "2020-06-22T16:33:06.014Z",
  "devdoc": {
    "details": "This is the actual election contract where users can voteSecurity by design: secret sharing, allows voters one time voting",
    "methods": {
      "addCandidate(string,string)": {
        "details": "add an option to the ballot before the election starts"
      },
      "constructor": {
        "details": "initializes the contract with all required parameters"
      },
      "getBallot()": {
        "details": "get all available options on the ballot"
      },
      "getListOfVoters()": {
        "details": "get a list of registered voters"
      },
      "getNumberOfVoters()": {
        "details": "use this this to get the number of registered voters"
      },
      "getResults()": {
        "details": "returns the list of final votes for each candidate"
      },
      "getVoterDetails(address)": {
        "details": "get details of a specific voter"
      },
      "getencryptedVoteList()": {
        "details": "get the list of encrypted votes of a voter, only allowed after the election is over"
      },
      "hasVoted(address)": {
        "details": "find out whether a voter has submitted their vote"
      },
      "isRegisteredVoter(address)": {
        "details": "use this to check whether an address belongs to a valid voter"
      },
      "publishResults(uint256[])": {
        "details": "publish the decrypted version of the sum of all votes for each candidate"
      },
      "registerVoter(address)": {
        "details": "use this to register or update a voter"
      },
      "unregisterVoter(address)": {
        "details": "use this to unregister a voter"
      },
      "vote(string)": {
        "details": "this is used to cast a vote. the vote is homomorphically encryptedallows users to vote multiple times, invalidating the previous vote"
      }
    }
  },
  "userdoc": {
    "methods": {}
  }
}