{
  "contractName": "RegistrationAuthority",
  "abi": [
    {
      "inputs": [],
      "payable": false,
      "stateMutability": "nonpayable",
      "type": "constructor"
    },
    {
      "constant": true,
      "inputs": [],
      "name": "manager",
      "outputs": [
        {
          "internalType": "address",
          "name": "",
          "type": "address"
        }
      ],
      "payable": false,
      "stateMutability": "view",
      "type": "function"
    },
    {
      "constant": false,
      "inputs": [
        {
          "internalType": "address",
          "name": "_voter",
          "type": "address"
        },
        {
          "internalType": "string",
          "name": "_name",
          "type": "string"
        },
        {
          "internalType": "string",
          "name": "_streetAddress",
          "type": "string"
        },
        {
          "internalType": "string",
          "name": "_birthdate",
          "type": "string"
        },
        {
          "internalType": "string",
          "name": "_personId",
          "type": "string"
        }
      ],
      "name": "registerOrUpdateVoter",
      "outputs": [],
      "payable": false,
      "stateMutability": "nonpayable",
      "type": "function"
    },
    {
      "constant": false,
      "inputs": [
        {
          "internalType": "address",
          "name": "_voter",
          "type": "address"
        }
      ],
      "name": "unregisterVoter",
      "outputs": [],
      "payable": false,
      "stateMutability": "nonpayable",
      "type": "function"
    },
    {
      "constant": true,
      "inputs": [
        {
          "internalType": "address",
          "name": "_voter",
          "type": "address"
        }
      ],
      "name": "isVoter",
      "outputs": [
        {
          "internalType": "bool",
          "name": "",
          "type": "bool"
        }
      ],
      "payable": false,
      "stateMutability": "view",
      "type": "function"
    },
    {
      "constant": true,
      "inputs": [],
      "name": "getNumberOfVoters",
      "outputs": [
        {
          "internalType": "uint256",
          "name": "",
          "type": "uint256"
        }
      ],
      "payable": false,
      "stateMutability": "view",
      "type": "function"
    },
    {
      "constant": true,
      "inputs": [],
      "name": "getListOfVoters",
      "outputs": [
        {
          "internalType": "address[]",
          "name": "",
          "type": "address[]"
        }
      ],
      "payable": false,
      "stateMutability": "view",
      "type": "function"
    },
    {
      "constant": true,
      "inputs": [
        {
          "internalType": "address",
          "name": "_voter",
          "type": "address"
        }
      ],
      "name": "getVoterDetails",
      "outputs": [
        {
          "components": [
            {
              "internalType": "uint256",
              "name": "listPointer",
              "type": "uint256"
            },
            {
              "internalType": "bool",
              "name": "isVoter",
              "type": "bool"
            },
            {
              "internalType": "address",
              "name": "ethAddress",
              "type": "address"
            },
            {
              "internalType": "string",
              "name": "name",
              "type": "string"
            },
            {
              "internalType": "string",
              "name": "streetAddress",
              "type": "string"
            },
            {
              "internalType": "string",
              "name": "birthdate",
              "type": "string"
            },
            {
              "internalType": "string",
              "name": "personId",
              "type": "string"
            }
          ],
          "internalType": "struct RegistrationAuthority.Voter",
          "name": "",
          "type": "tuple"
        }
      ],
      "payable": false,
      "stateMutability": "view",
      "type": "function"
    }
  ],
  "bytecode": "0x608060405234801561001057600080fd5b50336000806101000a81548173ffffffffffffffffffffffffffffffffffffffff021916908373ffffffffffffffffffffffffffffffffffffffff1602179055506113c8806100606000396000f3fe608060405234801561001057600080fd5b506004361061007d5760003560e01c80639bd05a0d1161005b5780639bd05a0d146100da578063a7771ee3146100f8578063ba71bef014610128578063ead30954146101585761007d565b8063481c6a75146100825780637ed17751146100a057806384865b66146100bc575b600080fd5b61008a610174565b60405161009791906111a7565b60405180910390f35b6100ba60048036036100b59190810190610e10565b610199565b005b6100c461045c565b6040516100d19190611261565b60405180910390f35b6100e2610469565b6040516100ef91906111c2565b60405180910390f35b610112600480360361010d9190810190610e10565b6104f7565b60405161011f91906111e4565b60405180910390f35b610142600480360361013d9190810190610e10565b610567565b60405161014f919061123f565b60405180910390f35b610172600480360361016d9190810190610e39565b6108c3565b005b6000809054906101000a900473ffffffffffffffffffffffffffffffffffffffff1681565b6000809054906101000a900473ffffffffffffffffffffffffffffffffffffffff1673ffffffffffffffffffffffffffffffffffffffff163373ffffffffffffffffffffffffffffffffffffffff1614610228576040517f08c379a000000000000000000000000000000000000000000000000000000000815260040161021f906111ff565b60405180910390fd5b60011515600160008373ffffffffffffffffffffffffffffffffffffffff1673ffffffffffffffffffffffffffffffffffffffff16815260200190815260200160002060010160009054906101000a900460ff161515146102be576040517f08c379a00000000000000000000000000000000000000000000000000000000081526004016102b59061121f565b60405180910390fd5b6000600160008373ffffffffffffffffffffffffffffffffffffffff1673ffffffffffffffffffffffffffffffffffffffff16815260200190815260200160002060010160006101000a81548160ff0219169083151502179055506000600160008373ffffffffffffffffffffffffffffffffffffffff1673ffffffffffffffffffffffffffffffffffffffff168152602001908152602001600020600001549050600060026001600280549050038154811061037757fe5b9060005260206000200160009054906101000a900473ffffffffffffffffffffffffffffffffffffffff16905080600283815481106103b257fe5b9060005260206000200160006101000a81548173ffffffffffffffffffffffffffffffffffffffff021916908373ffffffffffffffffffffffffffffffffffffffff16021790555081600160008373ffffffffffffffffffffffffffffffffffffffff1673ffffffffffffffffffffffffffffffffffffffff1681526020019081526020016000206000018190555060028054809190600190036104569190610c8b565b50505050565b6000600280549050905090565b606060028054806020026020016040519081016040528092919081815260200182805480156104ed57602002820191906000526020600020905b8160009054906101000a900473ffffffffffffffffffffffffffffffffffffffff1673ffffffffffffffffffffffffffffffffffffffff16815260200190600101908083116104a3575b5050505050905090565b600080600280549050141561050f5760009050610562565b600160008373ffffffffffffffffffffffffffffffffffffffff1673ffffffffffffffffffffffffffffffffffffffff16815260200190815260200160002060010160009054906101000a900460ff1690505b919050565b61056f610cb7565b600160008373ffffffffffffffffffffffffffffffffffffffff1673ffffffffffffffffffffffffffffffffffffffff1681526020019081526020016000206040518060e0016040529081600082015481526020016001820160009054906101000a900460ff161515151581526020016001820160019054906101000a900473ffffffffffffffffffffffffffffffffffffffff1673ffffffffffffffffffffffffffffffffffffffff1673ffffffffffffffffffffffffffffffffffffffff168152602001600282018054600181600116156101000203166002900480601f0160208091040260200160405190810160405280929190818152602001828054600181600116156101000203166002900480156106cd5780601f106106a2576101008083540402835291602001916106cd565b820191906000526020600020905b8154815290600101906020018083116106b057829003601f168201915b50505050508152602001600382018054600181600116156101000203166002900480601f01602080910402602001604051908101604052809291908181526020018280546001816001161561010002031660029004801561076f5780601f106107445761010080835404028352916020019161076f565b820191906000526020600020905b81548152906001019060200180831161075257829003601f168201915b50505050508152602001600482018054600181600116156101000203166002900480601f0160208091040260200160405190810160405280929190818152602001828054600181600116156101000203166002900480156108115780601f106107e657610100808354040283529160200191610811565b820191906000526020600020905b8154815290600101906020018083116107f457829003601f168201915b50505050508152602001600582018054600181600116156101000203166002900480601f0160208091040260200160405190810160405280929190818152602001828054600181600116156101000203166002900480156108b35780601f10610888576101008083540402835291602001916108b3565b820191906000526020600020905b81548152906001019060200180831161089657829003601f168201915b5050505050815250509050919050565b6000809054906101000a900473ffffffffffffffffffffffffffffffffffffffff1673ffffffffffffffffffffffffffffffffffffffff163373ffffffffffffffffffffffffffffffffffffffff1614610952576040517f08c379a0000000000000000000000000000000000000000000000000000000008152600401610949906111ff565b60405180910390fd5b60001515600160008b73ffffffffffffffffffffffffffffffffffffffff1673ffffffffffffffffffffffffffffffffffffffff16815260200190815260200160002060010160009054906101000a900460ff1615151415610b3857600160028a90806001815401808255809150509060018203906000526020600020016000909192909190916101000a81548173ffffffffffffffffffffffffffffffffffffffff021916908373ffffffffffffffffffffffffffffffffffffffff16021790555003600160008b73ffffffffffffffffffffffffffffffffffffffff1673ffffffffffffffffffffffffffffffffffffffff1681526020019081526020016000206000018190555060018060008b73ffffffffffffffffffffffffffffffffffffffff1673ffffffffffffffffffffffffffffffffffffffff16815260200190815260200160002060010160006101000a81548160ff02191690831515021790555088600160008b73ffffffffffffffffffffffffffffffffffffffff1673ffffffffffffffffffffffffffffffffffffffff16815260200190815260200160002060010160016101000a81548173ffffffffffffffffffffffffffffffffffffffff021916908373ffffffffffffffffffffffffffffffffffffffff1602179055505b8787600160008c73ffffffffffffffffffffffffffffffffffffffff1673ffffffffffffffffffffffffffffffffffffffff1681526020019081526020016000206002019190610b89929190610d0c565b508585600160008c73ffffffffffffffffffffffffffffffffffffffff1673ffffffffffffffffffffffffffffffffffffffff1681526020019081526020016000206003019190610bdb929190610d0c565b508383600160008c73ffffffffffffffffffffffffffffffffffffffff1673ffffffffffffffffffffffffffffffffffffffff1681526020019081526020016000206004019190610c2d929190610d0c565b508181600160008c73ffffffffffffffffffffffffffffffffffffffff1673ffffffffffffffffffffffffffffffffffffffff1681526020019081526020016000206005019190610c7f929190610d0c565b50505050505050505050565b815481835581811115610cb257818360005260206000209182019101610cb19190610d8c565b5b505050565b6040518060e0016040528060008152602001600015158152602001600073ffffffffffffffffffffffffffffffffffffffff168152602001606081526020016060815260200160608152602001606081525090565b828054600181600116156101000203166002900490600052602060002090601f016020900481019282601f10610d4d57803560ff1916838001178555610d7b565b82800160010185558215610d7b579182015b82811115610d7a578235825591602001919060010190610d5f565b5b509050610d889190610d8c565b5090565b610dae91905b80821115610daa576000816000905550600101610d92565b5090565b90565b600081359050610dc08161136e565b92915050565b60008083601f840112610dd857600080fd5b8235905067ffffffffffffffff811115610df157600080fd5b602083019150836001820283011115610e0957600080fd5b9250929050565b600060208284031215610e2257600080fd5b6000610e3084828501610db1565b91505092915050565b600080600080600080600080600060a08a8c031215610e5757600080fd5b6000610e658c828d01610db1565b99505060208a013567ffffffffffffffff811115610e8257600080fd5b610e8e8c828d01610dc6565b985098505060408a013567ffffffffffffffff811115610ead57600080fd5b610eb98c828d01610dc6565b965096505060608a013567ffffffffffffffff811115610ed857600080fd5b610ee48c828d01610dc6565b945094505060808a013567ffffffffffffffff811115610f0357600080fd5b610f0f8c828d01610dc6565b92509250509295985092959850929598565b6000610f2d8383610f39565b60208301905092915050565b610f42816112e2565b82525050565b610f51816112e2565b82525050565b6000610f628261128c565b610f6c81856112af565b9350610f778361127c565b8060005b83811015610fa8578151610f8f8882610f21565b9750610f9a836112a2565b925050600181019050610f7b565b5085935050505092915050565b610fbe816112f4565b82525050565b610fcd816112f4565b82525050565b6000610fde82611297565b610fe881856112c0565b9350610ff881856020860161132a565b6110018161135d565b840191505092915050565b60006110196039836112d1565b91507f6f6e6c792074686520636f6e7472616374206d616e6167657220697320616c6c60008301527f6f77656420746f2075736520746869732066756e6374696f6e000000000000006020830152604082019050919050565b600061107f6029836112d1565b91507f746869732061646472657373206973206e6f742072656769737465726564206160008301527f73206120766f74657200000000000000000000000000000000000000000000006020830152604082019050919050565b600060e0830160008301516110f06000860182611189565b5060208301516111036020860182610fb5565b5060408301516111166040860182610f39565b506060830151848203606086015261112e8282610fd3565b915050608083015184820360808601526111488282610fd3565b91505060a083015184820360a08601526111628282610fd3565b91505060c083015184820360c086015261117c8282610fd3565b9150508091505092915050565b61119281611320565b82525050565b6111a181611320565b82525050565b60006020820190506111bc6000830184610f48565b92915050565b600060208201905081810360008301526111dc8184610f57565b905092915050565b60006020820190506111f96000830184610fc4565b92915050565b600060208201905081810360008301526112188161100c565b9050919050565b6000602082019050818103600083015261123881611072565b9050919050565b6000602082019050818103600083015261125981846110d8565b905092915050565b60006020820190506112766000830184611198565b92915050565b6000819050602082019050919050565b600081519050919050565b600081519050919050565b6000602082019050919050565b600082825260208201905092915050565b600082825260208201905092915050565b600082825260208201905092915050565b60006112ed82611300565b9050919050565b60008115159050919050565b600073ffffffffffffffffffffffffffffffffffffffff82169050919050565b6000819050919050565b60005b8381101561134857808201518184015260208101905061132d565b83811115611357576000848401525b50505050565b6000601f19601f8301169050919050565b611377816112e2565b811461138257600080fd5b5056fea365627a7a723158206e06b3413080a711bed9d03409327677d948232b5a1cb7c33dcd61cf167bd5af6c6578706572696d656e74616cf564736f6c63430005100040",
  "source": "pragma solidity >=0.4.26;\npragma experimental ABIEncoderV2; // needed to be able to pass string arrays and structs into functions\n\ncontract ElectionFactory {\n    address public factoryManager;\n    address public registrationAuthority;\n    address[] public deployedElections;\n\n    /// @dev initializes the contract and sets the contract manager to be the deployer of the contract\n    constructor(address _registrationAuthority) public {\n        factoryManager = msg.sender;\n        registrationAuthority = _registrationAuthority;\n    }\n\n    /// @dev only the factory manager is allowed functions marked with this\n    /// @notice functions with this modifier can only be used by the administrator\n    modifier restricted() {\n        require(msg.sender == factoryManager, \"only the factory manager is allowed to use this function\");\n        _;\n    }\n\n    /// @dev use this to deploy new Election contracts and reset the temporary options lists afterwards\n    /// @param _title specifies the name of the election (e.g. national elections)\n    /// @param _description specifies the description of the election\n    /// @param _startTime specifies the beginning of the election (since Unix Epoch in seconds)\n    /// @param _timeLimit specifies a time limit until when the election is open (since Unix Epoch in seconds)\n    function createElection(\n        string memory _title,\n        string memory _description,\n        uint _startTime,\n        uint _timeLimit,\n        string memory _encryptionKey)\n        public restricted {\n        deployedElections.push(\n            address(\n                new Election(\n                    factoryManager,\n                    registrationAuthority,\n                    _title,\n                    _description,\n                    _startTime,\n                    _timeLimit,\n                    _encryptionKey\n                )\n            )\n        );\n    }\n\n    /// @dev use this to return a list of addresses of all deployed Election contracts\n    /// @return a list of addresses of all deployed Election contracts\n    function getDeployedElections() public view returns(address[] memory) {\n        return deployedElections;\n    }\n}\n\n/// @title Election\n/// @author Johannes Mols (02.09.2019)\n/// @dev This is the actual election contract where users can vote\n/// @dev Security by design: homomorphic encryption, (zero-knowledge proofs), allowing voters to vote multiple times to avoid coercion (new vote invalidates old one)\ncontract Election {\n    struct Option {\n        string title;\n        string description;\n    }\n\n    struct Vote {\n        uint listPointer; // index in the list of addresses that voted\n        string encryptedVote; // homomorphically encrypted 0 or 1 for each option. 1 being a vote. Max 1 per voter.\n    }\n\n    address public electionFactory;\n    address public electionManager;\n    address public registrationAuthority;\n    string public title;\n    string public description;\n    uint public startTime;\n    uint public timeLimit;\n    Option[] public options;\n    string public encryptionKey;\n    uint[] public publishedResult;\n\n    mapping(address => Vote) private votes; // records encrypted vote for each address\n    address[] private votesReferenceList; // keeps a list of all addresses that voted\n\n    /// @dev initializes the contract with all required parameters and sets the manager of the contract\n    constructor(\n        address _manager,\n        address _registrationAuthority,\n        string memory _title,\n        string memory _description,\n        uint _startTime,\n        uint _timeLimit,\n        string memory _encryptionKey\n    ) public {\n        electionFactory = msg.sender;\n        registrationAuthority = _registrationAuthority;\n        electionManager = _manager;\n        title = _title;\n        description = _description;\n        startTime = _startTime;\n        timeLimit = _timeLimit;\n        encryptionKey = _encryptionKey;\n    }\n\n    /// @dev only the factory manager is allowed functions marked with this\n    /// @notice functions with this modifier can only be used by the administrator\n    modifier manager() {\n        require(msg.sender == electionManager, \"only the election manager is allowed to use this function\");\n        _;\n    }\n\n    modifier factory() {\n        require(msg.sender == electionFactory, \"only the election factory is allowed to use this function\");\n        _;\n    }\n\n    modifier beforeElection() {\n        require(now < startTime, \"only allowed before election\");\n        _;\n    }\n\n    modifier duringElection() {\n        require(now > startTime && now < timeLimit, \"only allowed during election\");\n        _;\n    }\n\n    modifier afterElection() {\n        require(now > timeLimit, \"only allowed after election\");\n        _;\n    }\n\n    /// @dev add an option to the ballot before the election starts\n    function addOption(string calldata _title, string calldata _description) external manager beforeElection {\n        options.push(Option({ title: _title, description: _description }));\n    }\n\n    /// @dev get all available options on the ballot\n    function getOptions() external view returns(Option[] memory) {\n        return options;\n    }\n\n    /// @dev returns a list of addresses that participated in the election\n    function getListOfAddressesThatVoted() external view afterElection returns(address[] memory voterList) {\n        return votesReferenceList;\n    }\n\n    /// @dev get the encrypted vote of a voter, only allowed after the election is over\n    function getEncryptedVoteOfVoter(address _address) external view afterElection returns(string memory encryptedVote) {\n        return votes[_address].encryptedVote;\n    }\n\n    /// @dev publish the decrypted version of the sum of all votes for each candidate\n    function publishResults(uint[] calldata results) external manager afterElection returns(bool success) {\n        publishedResult = results;\n        return true;\n    }\n\n    /// @dev returns the list of final votes for each candidate\n    function getResults() external view afterElection returns(uint[] memory results) {\n        return publishedResult;\n    }\n\n    /// @dev this is used to cast a vote. the vote is homomorphically encrypted\n    /// @dev allows users to vote multiple times, invalidating the previous vote\n    function vote(string calldata _encryptedVote) external duringElection returns(bool success) {\n        require(isRegisteredVoter(msg.sender), \"message sender is not a registered voter\");\n\n        votes[msg.sender].encryptedVote = _encryptedVote;\n\n        if(!hasVoted(msg.sender)) {\n            votes[msg.sender].listPointer = votesReferenceList.push(msg.sender) - 1;\n        }\n\n        return true;\n    }\n\n    /// @dev find out whether a voter has submitted their vote\n    function hasVoted(address _address) public view returns(bool) {\n        if(votesReferenceList.length == 0) return false;\n        return (votesReferenceList[votes[_address].listPointer] == _address);\n    }\n\n    /// @dev check the registration authority whether the address is registered as a valid voter\n    function isRegisteredVoter(address _address) private view returns(bool) {\n        RegistrationAuthority ra = RegistrationAuthority(registrationAuthority);\n        return ra.isVoter(_address);\n    }\n}\n\n/// @title The Registration Authority takes care of keeping a record of eligible voters\n/// @author Johannes Mols (03.09.2019)\n/// @dev use this to register and unregister voters\ncontract RegistrationAuthority {\n    struct Voter {\n        uint listPointer;\n        bool isVoter;\n        address ethAddress;\n        string name;\n        string streetAddress;\n        string birthdate;\n        string personId;\n    }\n\n    address public manager;\n\n    mapping(address => Voter) private voters;\n    address[] private votersReferenceList;\n\n    /// @dev initializes the contract and sets the contract manager to be the deployer of the contract\n    constructor() public {\n        manager = msg.sender;\n    }\n\n    /// @dev only the factory manager is allowed functions marked with this\n    /// @notice functions with this modifier can only be used by the administrator\n    modifier restricted() {\n        require(msg.sender == manager, \"only the contract manager is allowed to use this function\");\n        _;\n    }\n\n    /// @dev use this to register or update a voter\n    function registerOrUpdateVoter(\n        address _voter,\n        string calldata _name,\n        string calldata _streetAddress,\n        string calldata _birthdate,\n        string calldata _personId) external restricted {\n\n        if (voters[_voter].isVoter == false) {\n            voters[_voter].listPointer = votersReferenceList.push(_voter) - 1;\n            voters[_voter].isVoter = true;\n            voters[_voter].ethAddress = _voter;\n        }\n\n        voters[_voter].name = _name;\n        voters[_voter].streetAddress = _streetAddress;\n        voters[_voter].birthdate = _birthdate;\n        voters[_voter].personId = _personId;\n    }\n\n    /// @dev use this to unregister a voter\n    function unregisterVoter(address _voter) external restricted {\n        require(voters[_voter].isVoter == true, \"this address is not registered as a voter\");\n\n        // Delete the desired entry by moving the last item in the array to the row to delete, and then shorten the array by one\n        voters[_voter].isVoter = false;\n        uint rowToDelete = voters[_voter].listPointer;\n        address keyToMove = votersReferenceList[votersReferenceList.length - 1];\n        votersReferenceList[rowToDelete] = keyToMove;\n        voters[keyToMove].listPointer = rowToDelete;\n        votersReferenceList.length--;\n    }\n\n    /// @dev use this to check whether an address belongs to a valid voter\n    function isVoter(address _voter) public view returns(bool) {\n        if (votersReferenceList.length == 0) return false;\n        return (voters[_voter].isVoter);\n    }\n\n    /// @dev use this this to get the number of registered voters\n    function getNumberOfVoters() public view returns(uint) {\n        return votersReferenceList.length;\n    }\n\n    /// @dev get a list of registered voters\n    function getListOfVoters() public view returns(address[] memory) {\n        return votersReferenceList;\n    }\n\n    /// @dev get details of a specific voter\n    function getVoterDetails(address _voter) public view returns(Voter memory) {\n        return voters[_voter];\n    }\n}\n",
  "sourcePath": "/home/faris/election/contracts/Election.sol",
  "compiler": {
    "name": "solc",
    "version": "0.5.16+commit.9c3226ce.Emscripten.clang"
  },
  "schemaVersion": "3.2.0",
  "updatedAt": "2020-06-09T09:35:59.494Z",
  "networkType": "ethereum",
  "devdoc": {
    "author": "Johannes Mols (03.09.2019)",
    "details": "use this to register and unregister voters",
    "methods": {
      "constructor": {
        "details": "initializes the contract and sets the contract manager to be the deployer of the contract"
      },
      "getListOfVoters()": {
        "details": "get a list of registered voters"
      },
      "getNumberOfVoters()": {
        "details": "use this this to get the number of registered voters"
      },
      "getVoterDetails(address)": {
        "details": "get details of a specific voter"
      },
      "isVoter(address)": {
        "details": "use this to check whether an address belongs to a valid voter"
      },
      "registerOrUpdateVoter(address,string,string,string,string)": {
        "details": "use this to register or update a voter"
      },
      "unregisterVoter(address)": {
        "details": "use this to unregister a voter"
      }
    },
    "title": "The Registration Authority takes care of keeping a record of eligible voters"
  },
  "userdoc": {
    "methods": {}
  }
}